Archive member included to satisfy reference by file (symbol)

/home/binhnt/opt/gcc-arm-none-eabi-5_4-2016q3/arm-none-eabi/lib/armv7-m/libc.a(lib_a-malloc.o)
                              build_enddevice_f103_stm32f10x/mini_cpp.o (malloc)
/home/binhnt/opt/gcc-arm-none-eabi-5_4-2016q3/arm-none-eabi/lib/armv7-m/libc.a(lib_a-mallocr.o)
                              /home/binhnt/opt/gcc-arm-none-eabi-5_4-2016q3/arm-none-eabi/lib/armv7-m/libc.a(lib_a-malloc.o) (_malloc_r)
/home/binhnt/opt/gcc-arm-none-eabi-5_4-2016q3/arm-none-eabi/lib/armv7-m/libc.a(lib_a-memcpy.o)
                              build_enddevice_f103_stm32f10x/cmac.o (memcpy)
/home/binhnt/opt/gcc-arm-none-eabi-5_4-2016q3/arm-none-eabi/lib/armv7-m/libc.a(lib_a-memset.o)
                              build_enddevice_f103_stm32f10x/cmac.o (memset)
/home/binhnt/opt/gcc-arm-none-eabi-5_4-2016q3/arm-none-eabi/lib/armv7-m/libc.a(lib_a-mlock.o)
                              /home/binhnt/opt/gcc-arm-none-eabi-5_4-2016q3/arm-none-eabi/lib/armv7-m/libc.a(lib_a-mallocr.o) (__malloc_lock)
/home/binhnt/opt/gcc-arm-none-eabi-5_4-2016q3/arm-none-eabi/lib/armv7-m/libc.a(lib_a-sbrkr.o)
                              /home/binhnt/opt/gcc-arm-none-eabi-5_4-2016q3/arm-none-eabi/lib/armv7-m/libc.a(lib_a-mallocr.o) (_sbrk_r)
/home/binhnt/opt/gcc-arm-none-eabi-5_4-2016q3/arm-none-eabi/lib/armv7-m/libc.a(lib_a-strlen-stub.o)
                              build_enddevice_f103_stm32f10x/Print.o (strlen)
/home/binhnt/opt/gcc-arm-none-eabi-5_4-2016q3/arm-none-eabi/lib/armv7-m/libc.a(lib_a-freer.o)
                              /home/binhnt/opt/gcc-arm-none-eabi-5_4-2016q3/arm-none-eabi/lib/armv7-m/libc.a(lib_a-malloc.o) (_free_r)
/home/binhnt/opt/gcc-arm-none-eabi-5_4-2016q3/arm-none-eabi/lib/armv7-m/libc.a(lib_a-impure.o)
                              /home/binhnt/opt/gcc-arm-none-eabi-5_4-2016q3/arm-none-eabi/lib/armv7-m/libc.a(lib_a-malloc.o) (_impure_ptr)
/home/binhnt/opt/gcc-arm-none-eabi-5_4-2016q3/arm-none-eabi/lib/armv7-m/libc.a(lib_a-reent.o)
                              /home/binhnt/opt/gcc-arm-none-eabi-5_4-2016q3/arm-none-eabi/lib/armv7-m/libc.a(lib_a-sbrkr.o) (errno)
/home/binhnt/opt/gcc-arm-none-eabi-5_4-2016q3/arm-none-eabi/lib/armv7-m/libm.a(lib_a-s_ceil.o)
                              build_enddevice_f103_stm32f10x/RegionCommon.o (ceil)
/home/binhnt/opt/gcc-arm-none-eabi-5_4-2016q3/arm-none-eabi/lib/armv7-m/libm.a(lib_a-s_floor.o)
                              build_enddevice_f103_stm32f10x/RegionCommon.o (floor)
/home/binhnt/opt/gcc-arm-none-eabi-5_4-2016q3/arm-none-eabi/lib/armv7-m/libm.a(lib_a-s_round.o)
                              build_enddevice_f103_stm32f10x/sx1276.o (round)
/home/binhnt/opt/gcc-arm-none-eabi-5_4-2016q3/lib/gcc/arm-none-eabi/5.4.1/armv7-m/libgcc.a(_arm_addsubdf3.o)
                              build_enddevice_f103_stm32f10x/RegionCommon.o (__aeabi_dsub)
/home/binhnt/opt/gcc-arm-none-eabi-5_4-2016q3/lib/gcc/arm-none-eabi/5.4.1/armv7-m/libgcc.a(_arm_muldivdf3.o)
                              build_enddevice_f103_stm32f10x/RegionCommon.o (__aeabi_dmul)
/home/binhnt/opt/gcc-arm-none-eabi-5_4-2016q3/lib/gcc/arm-none-eabi/5.4.1/armv7-m/libgcc.a(_arm_cmpdf2.o)
                              build_enddevice_f103_stm32f10x/Print.o (__aeabi_dcmplt)
/home/binhnt/opt/gcc-arm-none-eabi-5_4-2016q3/lib/gcc/arm-none-eabi/5.4.1/armv7-m/libgcc.a(_arm_unorddf2.o)
                              build_enddevice_f103_stm32f10x/Print.o (__aeabi_dcmpun)
/home/binhnt/opt/gcc-arm-none-eabi-5_4-2016q3/lib/gcc/arm-none-eabi/5.4.1/armv7-m/libgcc.a(_arm_fixdfsi.o)
                              build_enddevice_f103_stm32f10x/RegionCommon.o (__aeabi_d2iz)
/home/binhnt/opt/gcc-arm-none-eabi-5_4-2016q3/lib/gcc/arm-none-eabi/5.4.1/armv7-m/libgcc.a(_arm_fixunsdfsi.o)
                              build_enddevice_f103_stm32f10x/RegionCommon.o (__aeabi_d2uiz)
/home/binhnt/opt/gcc-arm-none-eabi-5_4-2016q3/lib/gcc/arm-none-eabi/5.4.1/armv7-m/libgcc.a(_arm_addsubsf3.o)
                              build_enddevice_f103_stm32f10x/RegionCommon.o (__aeabi_fsub)

Allocating common symbols
Common symbol       size              file

ak_timer_payload_irq
                    0x8               build_enddevice_f103_stm32f10x/timer.o
errno               0x4               /home/binhnt/opt/gcc-arm-none-eabi-5_4-2016q3/arm-none-eabi/lib/armv7-m/libc.a(lib_a-reent.o)
log_task_dbg_object_queue
                    0x24              build_enddevice_f103_stm32f10x/task.o
system_info         0x24              build_enddevice_f103_stm32f10x/system.o
xfunc_out           0x4               build_enddevice_f103_stm32f10x/xprintf.o
LoRaMacFlags        0x1               build_enddevice_f103_stm32f10x/LoRaMac.o
LoRaMacParamsDefaults
                    0x38              build_enddevice_f103_stm32f10x/LoRaMac.o
LoRaMacParams       0x38              build_enddevice_f103_stm32f10x/LoRaMac.o
SX1276              0x64              build_enddevice_f103_stm32f10x/sx1276.o

Discarded input sections

 .text          0x00000000        0x0 build_enddevice_f103_stm32f10x/message.o
 .data          0x00000000        0x0 build_enddevice_f103_stm32f10x/message.o
 .bss           0x00000000        0x0 build_enddevice_f103_stm32f10x/message.o
 .text.get_common_msg_pool_used
                0x00000000       0x18 build_enddevice_f103_stm32f10x/message.o
 .text.get_data_len_common_msg
                0x00000000       0x1c build_enddevice_f103_stm32f10x/message.o
 .text.get_pure_msg_pool_used
                0x00000000       0x18 build_enddevice_f103_stm32f10x/message.o
 .text.get_dynamic_msg
                0x00000000       0x4c build_enddevice_f103_stm32f10x/message.o
 .text.get_dynamic_msg_pool_used
                0x00000000       0x18 build_enddevice_f103_stm32f10x/message.o
 .text.set_data_dynamic_msg
                0x00000000       0xa4 build_enddevice_f103_stm32f10x/message.o
 .text.get_data_dynamic_msg
                0x00000000       0x54 build_enddevice_f103_stm32f10x/message.o
 .text.get_data_len_dynamic_msg
Memory Configuration

Name             Origin             Length             Attributes
FLASH            0x08000000         0x00010000         xr
SRAM             0x20000000         0x00005000         xrw
*default*        0x00000000         0xffffffff

Linker script and memory map

                0x00000000                HEAP_SIZE = 0x0

.start_flash    0x08000000        0x0
                0x08000000                _start_flash = .

.isr_vector     0x08000000       0xec
 *(.isr_vector)
 .isr_vector    0x08000000       0xec build_enddevice_f103_stm32f10x/system.o
                0x08000000                isr_vector
                0x080000ec                . = ALIGN (0x4)

.text           0x080000f0     0x9154
                0x080000f0                . = ALIGN (0x4)
 *(.text)
 .text          0x080000f0       0xec /home/binhnt/opt/gcc-arm-none-eabi-5_4-2016q3/arm-none-eabi/lib/armv7-m/libc.a(lib_a-memcpy.o)
                0x080000f0                memcpy
 .text          0x080001dc      0x370 /home/binhnt/opt/gcc-arm-none-eabi-5_4-2016q3/lib/gcc/arm-none-eabi/5.4.1/armv7-m/libgcc.a(_arm_addsubdf3.o)
                0x080001dc                __aeabi_drsub
                0x080001e4                __aeabi_dsub
                0x080001e4                __subdf3
                0x080001e8                __adddf3
                0x080001e8                __aeabi_dadd
                0x08000460                __aeabi_ui2d
                0x08000460                __floatunsidf
                0x08000480                __floatsidf
                0x08000480                __aeabi_i2d
                0x080004a4                __extendsfdf2
                0x080004a4                __aeabi_f2d
                0x080004e0                __aeabi_ul2d
                0x080004e0                __floatundidf
                0x080004f0                __floatdidf
                0x080004f0                __aeabi_l2d
 .text          0x0800054c      0x424 /home/binhnt/opt/gcc-arm-none-eabi-5_4-2016q3/lib/gcc/arm-none-eabi/5.4.1/armv7-m/libgcc.a(_arm_muldivdf3.o)
                0x0800054c                __aeabi_dmul
                0x0800054c                __muldf3
                0x080007a0                __aeabi_ddiv
                0x080007a0                __divdf3
 .text          0x08000970      0x110 /home/binhnt/opt/gcc-arm-none-eabi-5_4-2016q3/lib/gcc/arm-none-eabi/5.4.1/armv7-m/libgcc.a(_arm_cmpdf2.o)
                0x08000970                __gtdf2
                0x08000970                __gedf2
                0x08000978                __ltdf2
                0x08000978                __ledf2
                0x08000980                __cmpdf2
                0x08000980                __eqdf2
                0x08000980                __nedf2
                0x080009fc                __aeabi_cdrcmple
                0x08000a0c                __aeabi_cdcmple
                0x08000a0c                __aeabi_cdcmpeq
                0x08000a1c                __aeabi_dcmpeq
                0x08000a30                __aeabi_dcmplt
                0x08000a44                __aeabi_dcmple
                0x08000a58                __aeabi_dcmpge
                0x08000a6c                __aeabi_dcmpgt
 .text          0x08000a80       0x50 /home/binhnt/opt/gcc-arm-none-eabi-5_4-2016q3/lib/gcc/arm-none-eabi/5.4.1/armv7-m/libgcc.a(_arm_fixdfsi.o)
                0x08000a80                __fixdfsi
                0x08000a80                __aeabi_d2iz
 .text          0x08000ad0       0x40 /home/binhnt/opt/gcc-arm-none-eabi-5_4-2016q3/lib/gcc/arm-none-eabi/5.4.1/armv7-m/libgcc.a(_arm_fixunsdfsi.o)
                0x08000ad0                __fixunsdfsi
                0x08000ad0                __aeabi_d2uiz
 .text          0x08000b10      0x21c /home/binhnt/opt/gcc-arm-none-eabi-5_4-2016q3/lib/gcc/arm-none-eabi/5.4.1/armv7-m/libgcc.a(_arm_addsubsf3.o)
                0x08000b10                __aeabi_frsub
                0x08000b18                __subsf3
                0x08000b18                __aeabi_fsub
                0x08000b1c                __aeabi_fadd
                0x08000b1c                __addsf3
                0x08000c7c                __aeabi_ui2f
                0x08000c7c                __floatunsisf
                0x08000c84                __aeabi_i2f
                0x08000c84                __floatsisf
                0x08000ca0                __floatundisf
                0x08000ca0                __aeabi_ul2f
                0x08000cb0                __floatdisf
                0x08000cb0                __aeabi_l2f
 *(.text*)
 .text.msg_init
                0x08000d2c       0xf8 build_enddevice_f103_stm32f10x/message.o
                0x08000d2c                msg_init
 .text.msg_inc_ref_count
                0x08000e24       0x1c build_enddevice_f103_stm32f10x/message.o
                0x08000e24                msg_inc_ref_count
 .text.msg_dec_ref_count
                0x08000e40       0x18 build_enddevice_f103_stm32f10x/message.o
                0x08000e40                msg_dec_ref_count
 .text.msg_free
                0x08000e58       0x94 build_enddevice_f103_stm32f10x/message.o
                0x08000e58                msg_free
 .text.get_common_msg
                0x08000eec       0x48 build_enddevice_f103_stm32f10x/message.o
                0x08000eec                get_common_msg
 .text.set_data_common_msg
                0x08000f34       0x38 build_enddevice_f103_stm32f10x/message.o
                0x08000f34                set_data_common_msg
 .text.get_data_common_msg
                0x08000f6c       0x28 build_enddevice_f103_stm32f10x/message.o
                0x08000f6c                get_data_common_msg
 .text.get_pure_msg
                0x08000f94       0x48 build_enddevice_f103_stm32f10x/message.o
                0x08000f94                get_pure_msg
 .text.task_sheduler
                0x08000fdc       0xd8 build_enddevice_f103_stm32f10x/task.o
 .text.task_create
                0x080010b4       0x30 build_enddevice_f103_stm32f10x/task.o
                0x080010b4                task_create
 .text.task_post
                0x080010e4       0x7c build_enddevice_f103_stm32f10x/task.o
                0x080010e4                task_post
 .text.task_init
                0x08001160       0x40 build_enddevice_f103_stm32f10x/task.o
                0x08001160                task_init
 .text.task_run
                0x080011a0       0x48 build_enddevice_f103_stm32f10x/task.o
                0x080011a0                task_run
 .text.get_current_task_id
                0x080011e8        0xc build_enddevice_f103_stm32f10x/task.o
                0x080011e8                get_current_task_id
 .text.timer_init
                0x080011f4       0x48 build_enddevice_f103_stm32f10x/timer.o
                0x080011f4                timer_init
 .text.timer_tick
                0x0800123c       0x40 build_enddevice_f103_stm32f10x/timer.o
                0x0800123c                timer_tick
 .text.timer_set
                0x0800127c       0x98 build_enddevice_f103_stm32f10x/timer.o
                0x0800127c                timer_set
 .text.timer_remove_attr
                0x08001314       0x58 build_enddevice_f103_stm32f10x/timer.o
                0x08001314                timer_remove_attr
 .text.task_timer_tick
                0x0800136c       0x7c build_enddevice_f103_stm32f10x/timer.o
                0x0800136c                task_timer_tick
 .text.xor_block
                0x080013e8       0x82 build_enddevice_f103_stm32f10x/aes.o
 .text.copy_and_key
                0x0800146a       0x84 build_enddevice_f103_stm32f10x/aes.o
 *fill*         0x080014ee        0x2 
 .text.aes_set_key
                0x080014f0       0xfc build_enddevice_f103_stm32f10x/aes.o
                0x080014f0                aes_set_key
 .text.aes_encrypt
                0x080015ec      0x2d4 build_enddevice_f103_stm32f10x/aes.o
                0x080015ec                aes_encrypt
 .text.AES_CMAC_Init
                0x080018c0       0x20 build_enddevice_f103_stm32f10x/cmac.o
                0x080018c0                AES_CMAC_Init
 .text.AES_CMAC_SetKey
                0x080018e0        0xc build_enddevice_f103_stm32f10x/cmac.o
                0x080018e0                AES_CMAC_SetKey
 .text.AES_CMAC_Update
                0x080018ec       0xe0 build_enddevice_f103_stm32f10x/cmac.o
                0x080018ec                AES_CMAC_Update
 .text.AES_CMAC_Final
                0x080019cc      0x14e build_enddevice_f103_stm32f10x/cmac.o
                0x080019cc                AES_CMAC_Final
 .text.RegionIsActive
                0x08001b1a        0x8 build_enddevice_f103_stm32f10x/Region.o
                0x08001b1a                RegionIsActive
 .text.RegionGetPhyParam
                0x08001b22       0x12 build_enddevice_f103_stm32f10x/Region.o
                0x08001b22                RegionGetPhyParam
 .text.RegionSetBandTxDone
                0x08001b34        0xc build_enddevice_f103_stm32f10x/Region.o
                0x08001b34                RegionSetBandTxDone
 .text.RegionInitDefaults
                0x08001b40        0xc build_enddevice_f103_stm32f10x/Region.o
                0x08001b40                RegionInitDefaults
 .text.RegionVerify
                0x08001b4c       0x12 build_enddevice_f103_stm32f10x/Region.o
                0x08001b4c                RegionVerify
 .text.RegionApplyCFList
                0x08001b5e        0xc build_enddevice_f103_stm32f10x/Region.o
                0x08001b5e                RegionApplyCFList
 .text.RegionChanMaskSet
                0x08001b6a        0xe build_enddevice_f103_stm32f10x/Region.o
                0x08001b6a                RegionChanMaskSet
 .text.RegionAdrNext
                0x08001b78       0x1c build_enddevice_f103_stm32f10x/Region.o
                0x08001b78                RegionAdrNext
 .text.RegionComputeRxWindowParameters
                0x08001b94       0x1a build_enddevice_f103_stm32f10x/Region.o
                0x08001b94                RegionComputeRxWindowParameters
 .text.RegionRxConfig
                0x08001bae       0x12 build_enddevice_f103_stm32f10x/Region.o
                0x08001bae                RegionRxConfig
 .text.RegionTxConfig
                0x08001bc0       0x1a build_enddevice_f103_stm32f10x/Region.o
                0x08001bc0                RegionTxConfig
 .text.RegionLinkAdrReq
                0x08001bda       0x20 build_enddevice_f103_stm32f10x/Region.o
                0x08001bda                RegionLinkAdrReq
 .text.RegionRxParamSetupReq
                0x08001bfa        0xe build_enddevice_f103_stm32f10x/Region.o
                0x08001bfa                RegionRxParamSetupReq
 .text.RegionNewChannelReq
                0x08001c08        0xe build_enddevice_f103_stm32f10x/Region.o
                0x08001c08                RegionNewChannelReq
 .text.RegionTxParamSetupReq
                0x08001c16        0xe build_enddevice_f103_stm32f10x/Region.o
                0x08001c16                RegionTxParamSetupReq
 .text.RegionDlChannelReq
                0x08001c24        0xe build_enddevice_f103_stm32f10x/Region.o
                0x08001c24                RegionDlChannelReq
 .text.RegionAlternateDr
                0x08001c32        0xe build_enddevice_f103_stm32f10x/Region.o
                0x08001c32                RegionAlternateDr
 .text.RegionCalcBackOff
                0x08001c40        0xc build_enddevice_f103_stm32f10x/Region.o
                0x08001c40                RegionCalcBackOff
 .text.RegionNextChannel
                0x08001c4c       0x1c build_enddevice_f103_stm32f10x/Region.o
                0x08001c4c                RegionNextChannel
 .text.RegionApplyDrOffset
                0x08001c68       0x1a build_enddevice_f103_stm32f10x/Region.o
                0x08001c68                RegionApplyDrOffset
 *fill*         0x08001c82        0x2 
 .text.RegionCommonGetJoinDc
                0x08001c84       0x24 build_enddevice_f103_stm32f10x/RegionCommon.o
                0x08001c84                RegionCommonGetJoinDc
 .text.RegionCommonChanVerifyDr
                0x08001ca8       0x62 build_enddevice_f103_stm32f10x/RegionCommon.o
                0x08001ca8                RegionCommonChanVerifyDr
 .text.RegionCommonValueInRange
                0x08001d0a       0x12 build_enddevice_f103_stm32f10x/RegionCommon.o
                0x08001d0a                RegionCommonValueInRange
 .text.RegionCommonChanDisable
                0x08001d1c       0x2c build_enddevice_f103_stm32f10x/RegionCommon.o
                0x08001d1c                RegionCommonChanDisable
 .text.RegionCommonCountChannels
                0x08001d48       0x3a build_enddevice_f103_stm32f10x/RegionCommon.o
                0x08001d48                RegionCommonCountChannels
 .text.RegionCommonChanMaskCopy
                0x08001d82       0x1c build_enddevice_f103_stm32f10x/RegionCommon.o
                0x08001d82                RegionCommonChanMaskCopy
 .text.RegionCommonSetBandTxDone
                0x08001d9e        0xa build_enddevice_f103_stm32f10x/RegionCommon.o
                0x08001d9e                RegionCommonSetBandTxDone
 .text.RegionCommonUpdateBandTimeOff
                0x08001da8       0x9a build_enddevice_f103_stm32f10x/RegionCommon.o
                0x08001da8                RegionCommonUpdateBandTimeOff
 .text.RegionCommonParseLinkAdrReq
                0x08001e42       0x34 build_enddevice_f103_stm32f10x/RegionCommon.o
                0x08001e42                RegionCommonParseLinkAdrReq
 .text.RegionCommonLinkAdrReqVerifyParams
                0x08001e76       0x8e build_enddevice_f103_stm32f10x/RegionCommon.o
                0x08001e76                RegionCommonLinkAdrReqVerifyParams
 .text.RegionCommonComputeSymbolTimeLoRa
                0x08001f04       0x34 build_enddevice_f103_stm32f10x/RegionCommon.o
                0x08001f04                RegionCommonComputeSymbolTimeLoRa
 .text.RegionCommonComputeSymbolTimeFsk
                0x08001f38       0x18 build_enddevice_f103_stm32f10x/RegionCommon.o
                0x08001f38                RegionCommonComputeSymbolTimeFsk
 .text.RegionCommonComputeRxWindowParameters
                0x08001f50       0xac build_enddevice_f103_stm32f10x/RegionCommon.o
                0x08001f50                RegionCommonComputeRxWindowParameters
 .text.RegionCommonComputeTxPower
                0x08001ffc       0x2a build_enddevice_f103_stm32f10x/RegionCommon.o
                0x08001ffc                RegionCommonComputeTxPower
 .text.RegionCommonCalcBackOff
                0x08002026       0x4a build_enddevice_f103_stm32f10x/RegionCommon.o
                0x08002026                RegionCommonCalcBackOff
 .text.VerifyTxFreq
                0x08002070       0x28 build_enddevice_f103_stm32f10x/RegionEU433.o
 .text.RegionEU433GetPhyParam
                0x08002098       0xc4 build_enddevice_f103_stm32f10x/RegionEU433.o
                0x08002098                RegionEU433GetPhyParam
 .text.RegionEU433SetBandTxDone
                0x0800215c       0x24 build_enddevice_f103_stm32f10x/RegionEU433.o
                0x0800215c                RegionEU433SetBandTxDone
 .text.RegionEU433InitDefaults
                0x08002180       0x60 build_enddevice_f103_stm32f10x/RegionEU433.o
                0x08002180                RegionEU433InitDefaults
 .text.RegionEU433Verify
                0x080021e0       0x44 build_enddevice_f103_stm32f10x/RegionEU433.o
                0x080021e0                RegionEU433Verify
 .text.RegionEU433ChanMaskSet
                0x08002224       0x2c build_enddevice_f103_stm32f10x/RegionEU433.o
                0x08002224                RegionEU433ChanMaskSet
 .text.RegionEU433AdrNext
                0x08002250       0x7c build_enddevice_f103_stm32f10x/RegionEU433.o
                0x08002250                RegionEU433AdrNext
 .text.RegionEU433ComputeRxWindowParameters
                0x080022cc       0x70 build_enddevice_f103_stm32f10x/RegionEU433.o
                0x080022cc                RegionEU433ComputeRxWindowParameters
 .text.RegionEU433RxConfig
                0x0800233c       0xe4 build_enddevice_f103_stm32f10x/RegionEU433.o
                0x0800233c                RegionEU433RxConfig
 .text.RegionEU433TxConfig
                0x08002420       0xfc build_enddevice_f103_stm32f10x/RegionEU433.o
                0x08002420                RegionEU433TxConfig
 .text.RegionEU433LinkAdrReq
                0x0800251c      0x148 build_enddevice_f103_stm32f10x/RegionEU433.o
                0x0800251c                RegionEU433LinkAdrReq
 .text.RegionEU433RxParamSetupReq
                0x08002664       0x44 build_enddevice_f103_stm32f10x/RegionEU433.o
                0x08002664                RegionEU433RxParamSetupReq
 .text.RegionEU433TxParamSetupReq
                0x080026a8        0x6 build_enddevice_f103_stm32f10x/RegionEU433.o
                0x080026a8                RegionEU433TxParamSetupReq
 *fill*         0x080026ae        0x2 
 .text.RegionEU433DlChannelReq
                0x080026b0       0x38 build_enddevice_f103_stm32f10x/RegionEU433.o
                0x080026b0                RegionEU433DlChannelReq
 .text.RegionEU433AlternateDr
                0x080026e8       0x3e build_enddevice_f103_stm32f10x/RegionEU433.o
                0x080026e8                RegionEU433AlternateDr
 *fill*         0x08002726        0x2 
 .text.RegionEU433CalcBackOff
                0x08002728       0x40 build_enddevice_f103_stm32f10x/RegionEU433.o
                0x08002728                RegionEU433CalcBackOff
 .text.RegionEU433NextChannel
                0x08002768      0x124 build_enddevice_f103_stm32f10x/RegionEU433.o
                0x08002768                RegionEU433NextChannel
 .text.RegionEU433ChannelAdd
                0x0800288c       0xc8 build_enddevice_f103_stm32f10x/RegionEU433.o
                0x0800288c                RegionEU433ChannelAdd
 .text.RegionEU433ChannelsRemove
                0x08002954       0x30 build_enddevice_f103_stm32f10x/RegionEU433.o
                0x08002954                RegionEU433ChannelsRemove
 .text.RegionEU433ApplyCFList
                0x08002984       0x76 build_enddevice_f103_stm32f10x/RegionEU433.o
                0x08002984                RegionEU433ApplyCFList
 .text.RegionEU433NewChannelReq
                0x080029fa       0x4e build_enddevice_f103_stm32f10x/RegionEU433.o
                0x080029fa                RegionEU433NewChannelReq
 .text.RegionEU433ApplyDrOffset
                0x08002a48        0xc build_enddevice_f103_stm32f10x/RegionEU433.o
                0x08002a48                RegionEU433ApplyDrOffset
 .text.ResetMacParameters
                0x08002a54       0xec build_enddevice_f103_stm32f10x/LoRaMac.o
 .text.ValidatePayloadLength
                0x08002b40       0x54 build_enddevice_f103_stm32f10x/LoRaMac.o
 .text.RxWindowSetup
                0x08002b94       0x18 build_enddevice_f103_stm32f10x/LoRaMac.o
 .text.ProcessMacCommands
                0x08002bac      0x418 build_enddevice_f103_stm32f10x/LoRaMac.o
 .text.OnRxWindow1TimerEvent
                0x08002fc4       0x80 build_enddevice_f103_stm32f10x/LoRaMac.o
                0x08002fc4                OnRxWindow1TimerEvent
 .text.OnRxWindow2TimerEvent
                0x08003044       0x80 build_enddevice_f103_stm32f10x/LoRaMac.o
                0x08003044                OnRxWindow2TimerEvent
 .text.OnRadioTxTimeout
                0x080030c4       0x4c build_enddevice_f103_stm32f10x/LoRaMac.o
 .text.OnRadioTxDone
                0x08003110      0x128 build_enddevice_f103_stm32f10x/LoRaMac.o
 .text.OnAckTimeoutTimerEvent
                0x08003238       0x48 build_enddevice_f103_stm32f10x/LoRaMac.o
                0x08003238                OnAckTimeoutTimerEvent
 .text.PrepareRxDoneAbort
                0x08003280       0x3c build_enddevice_f103_stm32f10x/LoRaMac.o
 .text.OnRadioRxDone
                0x080032bc      0x514 build_enddevice_f103_stm32f10x/LoRaMac.o
 .text.SendFrameOnChannel
                0x080037d0       0xbc build_enddevice_f103_stm32f10x/LoRaMac.o
                0x080037d0                SendFrameOnChannel
 .text.LoRaMacInitialization
                0x0800388c      0x250 build_enddevice_f103_stm32f10x/LoRaMac.o
                0x0800388c                LoRaMacInitialization
 .text.LoRaMacQueryTxPossible
                0x08003adc       0xf8 build_enddevice_f103_stm32f10x/LoRaMac.o
                0x08003adc                LoRaMacQueryTxPossible
 .text.LoRaMacMibGetRequestConfirm
                0x08003bd4      0x138 build_enddevice_f103_stm32f10x/LoRaMac.o
                0x08003bd4                LoRaMacMibGetRequestConfirm
 .text.LoRaMacMibSetRequestConfirm
                0x08003d0c      0x30c build_enddevice_f103_stm32f10x/LoRaMac.o
                0x08003d0c                LoRaMacMibSetRequestConfirm
 .text.TimerGetElapsedTime
                0x08004018       0x1a build_enddevice_f103_stm32f10x/LoRaMac.o
                0x08004018                TimerGetElapsedTime
 *fill*         0x08004032        0x2 
 .text.ScheduleTx
                0x08004034      0x1ac build_enddevice_f103_stm32f10x/LoRaMac.o
 .text.OnRadioRxTimeout
                0x080041e0       0x90 build_enddevice_f103_stm32f10x/LoRaMac.o
 .text.OnRadioRxError
                0x08004270       0x88 build_enddevice_f103_stm32f10x/LoRaMac.o
 .text.TimerGetCurrentTime
                0x080042f8        0x4 build_enddevice_f103_stm32f10x/LoRaMac.o
                0x080042f8                TimerGetCurrentTime
 .text.randr    0x080042fc       0x24 build_enddevice_f103_stm32f10x/LoRaMac.o
                0x080042fc                randr
 .text.memcpyr  0x08004320       0x14 build_enddevice_f103_stm32f10x/LoRaMac.o
                0x08004320                memcpyr
 .text.PrepareFrame
                0x08004334      0x388 build_enddevice_f103_stm32f10x/LoRaMac.o
                0x08004334                PrepareFrame
 .text.OnTxDelayedTimerEvent
                0x080046bc       0x94 build_enddevice_f103_stm32f10x/LoRaMac.o
                0x080046bc                OnTxDelayedTimerEvent
 .text.OnMacStateCheckTimerEvent
                0x08004750      0x2c8 build_enddevice_f103_stm32f10x/LoRaMac.o
                0x08004750                OnMacStateCheckTimerEvent
 .text.Send     0x08004a18       0x44 build_enddevice_f103_stm32f10x/LoRaMac.o
                0x08004a18                Send
 .text.LoRaMacMcpsRequest
                0x08004a5c      0x150 build_enddevice_f103_stm32f10x/LoRaMac.o
                0x08004a5c                LoRaMacMcpsRequest
 .text.LoRaMacComputeMic
                0x08004bac       0x78 build_enddevice_f103_stm32f10x/LoRaMacCrypto.o
                0x08004bac                LoRaMacComputeMic
 .text.LoRaMacPayloadEncrypt
                0x08004c24       0xe0 build_enddevice_f103_stm32f10x/LoRaMacCrypto.o
                0x08004c24                LoRaMacPayloadEncrypt
 .text.LoRaMacPayloadDecrypt
                0x08004d04        0xe build_enddevice_f103_stm32f10x/LoRaMacCrypto.o
                0x08004d04                LoRaMacPayloadDecrypt
 *fill*         0x08004d12        0x2 
 .text.LoRaMacJoinComputeMic
                0x08004d14       0x40 build_enddevice_f103_stm32f10x/LoRaMacCrypto.o
                0x08004d14                LoRaMacJoinComputeMic
 .text.LoRaMacJoinDecrypt
                0x08004d54       0x44 build_enddevice_f103_stm32f10x/LoRaMacCrypto.o
                0x08004d54                LoRaMacJoinDecrypt
 .text.LoRaMacJoinComputeSKeys
                0x08004d98       0x90 build_enddevice_f103_stm32f10x/LoRaMacCrypto.o
                0x08004d98                LoRaMacJoinComputeSKeys
 .text.GetFskBandwidthRegValue
                0x08004e28       0x34 build_enddevice_f103_stm32f10x/sx1276.o
 .text.SX1276GetStatus
                0x08004e5c        0xc build_enddevice_f103_stm32f10x/sx1276.o
                0x08004e5c                SX1276GetStatus
 .text.SX1276Reset
                0x08004e68       0x1a build_enddevice_f103_stm32f10x/sx1276.o
                0x08004e68                SX1276Reset
 .text.SX1276WriteBuffer
                0x08004e82       0x30 build_enddevice_f103_stm32f10x/sx1276.o
                0x08004e82                SX1276WriteBuffer
 .text.SX1276Write
                0x08004eb2       0x16 build_enddevice_f103_stm32f10x/sx1276.o
                0x08004eb2                SX1276Write
 .text.SX1276SetChannel
                0x08004ec8       0x58 build_enddevice_f103_stm32f10x/sx1276.o
                0x08004ec8                SX1276SetChannel
 .text.SX1276ReadBuffer
                0x08004f20       0x32 build_enddevice_f103_stm32f10x/sx1276.o
                0x08004f20                SX1276ReadBuffer
 .text.SX1276Read
                0x08004f52       0x16 build_enddevice_f103_stm32f10x/sx1276.o
                0x08004f52                SX1276Read
 .text.RxChainCalibration
                0x08004f68       0xa4 build_enddevice_f103_stm32f10x/sx1276.o
 *fill*         0x0800500c        0x4 
 .text.SX1276GetTimeOnAir
                0x08005010      0x1f4 build_enddevice_f103_stm32f10x/sx1276.o
                0x08005010                SX1276GetTimeOnAir
 .text.SX1276ReadRssi
                0x08005204       0x44 build_enddevice_f103_stm32f10x/sx1276.o
                0x08005204                SX1276ReadRssi
 .text.SX1276SetOpMode
                0x08005248       0x30 build_enddevice_f103_stm32f10x/sx1276.o
                0x08005248                SX1276SetOpMode
 .text.SX1276SetSleep
                0x08005278       0x24 build_enddevice_f103_stm32f10x/sx1276.o
                0x08005278                SX1276SetSleep
 .text.SX1276SetStby
                0x0800529c       0x24 build_enddevice_f103_stm32f10x/sx1276.o
                0x0800529c                SX1276SetStby
 .text.SX1276SetRx
                0x080052c0      0x1f8 build_enddevice_f103_stm32f10x/sx1276.o
                0x080052c0                SX1276SetRx
 .text.SX1276SetTx
                0x080054b8       0xb8 build_enddevice_f103_stm32f10x/sx1276.o
                0x080054b8                SX1276SetTx
 .text.SX1276StartCad
                0x08005570       0x38 build_enddevice_f103_stm32f10x/sx1276.o
                0x08005570                SX1276StartCad
 .text.SX1276SetModem
                0x080055a8       0x78 build_enddevice_f103_stm32f10x/sx1276.o
                0x080055a8                SX1276SetModem
 .text.SX1276Init
                0x08005620       0x4c build_enddevice_f103_stm32f10x/sx1276.o
                0x08005620                SX1276Init
 .text.SX1276IsChannelFree
                0x0800566c       0x48 build_enddevice_f103_stm32f10x/sx1276.o
                0x0800566c                SX1276IsChannelFree
 .text.SX1276Random
                0x080056b4       0x3e build_enddevice_f103_stm32f10x/sx1276.o
                0x080056b4                SX1276Random
 *fill*         0x080056f2        0x6 
 .text.SX1276SetRxConfig
                0x080056f8      0x344 build_enddevice_f103_stm32f10x/sx1276.o
                0x080056f8                SX1276SetRxConfig
 *fill*         0x08005a3c        0x4 
 .text.SX1276SetTxConfig
                0x08005a40      0x27c build_enddevice_f103_stm32f10x/sx1276.o
                0x08005a40                SX1276SetTxConfig
 .text.SX1276SetTxContinuousWave
                0x08005cbc       0x80 build_enddevice_f103_stm32f10x/sx1276.o
                0x08005cbc                SX1276SetTxContinuousWave
 .text.SX1276WriteFifo
                0x08005d3c        0xa build_enddevice_f103_stm32f10x/sx1276.o
                0x08005d3c                SX1276WriteFifo
 *fill*         0x08005d46        0x2 
 .text.SX1276Send
                0x08005d48      0x108 build_enddevice_f103_stm32f10x/sx1276.o
                0x08005d48                SX1276Send
 .text.SX1276ReadFifo
                0x08005e50        0xa build_enddevice_f103_stm32f10x/sx1276.o
                0x08005e50                SX1276ReadFifo
 *fill*         0x08005e5a        0x2 
 .text.SX1276SetMaxPayloadLength
                0x08005e5c       0x3c build_enddevice_f103_stm32f10x/sx1276.o
                0x08005e5c                SX1276SetMaxPayloadLength
 .text.SX1276SetPublicNetwork
                0x08005e98       0x28 build_enddevice_f103_stm32f10x/sx1276.o
                0x08005e98                SX1276SetPublicNetwork
 .text.SX1276OnTimeoutIrq
                0x08005ec0       0x74 build_enddevice_f103_stm32f10x/sx1276.o
                0x08005ec0                SX1276OnTimeoutIrq
 .text.SX1276OnDio0Irq
                0x08005f34      0x254 build_enddevice_f103_stm32f10x/sx1276.o
                0x08005f34                SX1276OnDio0Irq
 .text.SX1276OnDio1Irq
                0x08006188       0xc4 build_enddevice_f103_stm32f10x/sx1276.o
                0x08006188                SX1276OnDio1Irq
 *fill*         0x0800624c        0x4 
 .text.SX1276OnDio2Irq
                0x08006250       0xb8 build_enddevice_f103_stm32f10x/sx1276.o
                0x08006250                SX1276OnDio2Irq
 .text.SX1276OnDio3Irq
                0x08006308       0x50 build_enddevice_f103_stm32f10x/sx1276.o
                0x08006308                SX1276OnDio3Irq
 .text.SX1276OnDio4Irq
                0x08006358       0x18 build_enddevice_f103_stm32f10x/sx1276.o
                0x08006358                SX1276OnDio4Irq
 .text.SX1276OnDio5Irq
                0x08006370        0x2 build_enddevice_f103_stm32f10x/sx1276.o
                0x08006370                SX1276OnDio5Irq
 .text.SX1276CheckRfFrequency
                0x08006372        0x4 build_enddevice_f103_stm32f10x/sx1276_cfg.o
                0x08006372                SX1276CheckRfFrequency
 .text.SX1276IoIrqInit
                0x08006376        0x4 build_enddevice_f103_stm32f10x/sx1276_cfg.o
                0x08006376                SX1276IoIrqInit
 *fill*         0x0800637a        0x2 
 .text.SX1276SetRfTxPower
                0x0800637c       0xa8 build_enddevice_f103_stm32f10x/sx1276_cfg.o
                0x0800637c                SX1276SetRfTxPower
 .text.SX1276AntSwInit
                0x08006424       0x12 build_enddevice_f103_stm32f10x/sx1276_cfg.o
                0x08006424                SX1276AntSwInit
 .text.SX1276AntSwDeInit
                0x08006436       0x12 build_enddevice_f103_stm32f10x/sx1276_cfg.o
                0x08006436                SX1276AntSwDeInit
 .text.SX1276SetAntSwLowPower
                0x08006448       0x1c build_enddevice_f103_stm32f10x/sx1276_cfg.o
                0x08006448                SX1276SetAntSwLowPower
 .text.SX1276SetAntSw
                0x08006464       0x20 build_enddevice_f103_stm32f10x/sx1276_cfg.o
                0x08006464                SX1276SetAntSw
 .text.mem_set  0x08006484       0x12 build_enddevice_f103_stm32f10x/utils.o
                0x08006484                mem_set
 .text.mem_cpy  0x08006496       0x14 build_enddevice_f103_stm32f10x/utils.o
                0x08006496                mem_cpy
 .text.mem_read
                0x080064aa       0x16 build_enddevice_f103_stm32f10x/utils.o
                0x080064aa                mem_read
 .text.mem_write
                0x080064c0       0x16 build_enddevice_f103_stm32f10x/utils.o
                0x080064c0                mem_write
 .text.str_cmp  0x080064d6       0x28 build_enddevice_f103_stm32f10x/utils.o
                0x080064d6                str_cmp
 *fill*         0x080064fe        0x2 
 .text.xputc    0x08006500       0x24 build_enddevice_f103_stm32f10x/xprintf.o
                0x08006500                xputc
 .text.xprintf  0x08006524      0x122 build_enddevice_f103_stm32f10x/xprintf.o
                0x08006524                xprintf
 *fill*         0x08006646        0x2 
 .text.set_dymc_output_type
                0x08006648       0x14 build_enddevice_f103_stm32f10x/xprintf.o
                0x08006648                set_dymc_output_type
 .text.xdymcprintf
                0x0800665c      0x170 build_enddevice_f103_stm32f10x/xprintf.o
                0x0800665c                xdymcprintf
 .text.cmd_line_parser
                0x080067cc       0x7c build_enddevice_f103_stm32f10x/cmd_line.o
                0x080067cc                cmd_line_parser
 .text.log_queue_init
                0x08006848       0x2e build_enddevice_f103_stm32f10x/log_queue.o
                0x08006848                log_queue_init
 .text.log_queue_put
                0x08006876       0x58 build_enddevice_f103_stm32f10x/log_queue.o
                0x08006876                log_queue_put
 .text.led_init
                0x080068ce       0x20 build_enddevice_f103_stm32f10x/led.o
                0x080068ce                led_init
 .text.led_on   0x080068ee        0xc build_enddevice_f103_stm32f10x/led.o
                0x080068ee                led_on
 .text.led_off  0x080068fa        0xc build_enddevice_f103_stm32f10x/led.o
                0x080068fa                led_off
 .text.led_toggle
                0x08006906       0x12 build_enddevice_f103_stm32f10x/led.o
                0x08006906                led_toggle
 .text.button_init
                0x08006918       0x32 build_enddevice_f103_stm32f10x/button.o
                0x08006918                button_init
 .text.button_enable
                0x0800694a        0x6 build_enddevice_f103_stm32f10x/button.o
                0x0800694a                button_enable
 .text.button_disable
                0x08006950        0x6 build_enddevice_f103_stm32f10x/button.o
                0x08006950                button_disable
 .text.button_timer_polling
                0x08006956       0x8e build_enddevice_f103_stm32f10x/button.o
                0x08006956                button_timer_polling
 .text.sys_dbg_fatal
                0x080069e4       0x4c build_enddevice_f103_stm32f10x/sys_dbg.o
                0x080069e4                sys_dbg_fatal
 .text.SystemInit
                0x08006a30       0xf4 build_enddevice_f103_stm32f10x/system_stm32f10x.o
                0x08006a30                SystemInit
 .text.SystemCoreClockUpdate
                0x08006b24       0x5c build_enddevice_f103_stm32f10x/system_stm32f10x.o
                0x08006b24                SystemCoreClockUpdate
 .text.GPIO_Init
                0x08006b80       0xa4 build_enddevice_f103_stm32f10x/stm32f10x_gpio.o
                0x08006b80                GPIO_Init
 .text.GPIO_ReadInputDataBit
                0x08006c24        0xc build_enddevice_f103_stm32f10x/stm32f10x_gpio.o
                0x08006c24                GPIO_ReadInputDataBit
 .text.GPIO_SetBits
                0x08006c30        0x4 build_enddevice_f103_stm32f10x/stm32f10x_gpio.o
                0x08006c30                GPIO_SetBits
 .text.GPIO_ResetBits
                0x08006c34        0x4 build_enddevice_f103_stm32f10x/stm32f10x_gpio.o
                0x08006c34                GPIO_ResetBits
 .text.GPIO_PinRemapConfig
                0x08006c38       0x60 build_enddevice_f103_stm32f10x/stm32f10x_gpio.o
                0x08006c38                GPIO_PinRemapConfig
 .text.GPIO_EXTILineConfig
                0x08006c98       0x2a build_enddevice_f103_stm32f10x/stm32f10x_gpio.o
                0x08006c98                GPIO_EXTILineConfig
 *fill*         0x08006cc2        0x2 
 .text.RCC_HSICmd
                0x08006cc4        0xc build_enddevice_f103_stm32f10x/stm32f10x_rcc.o
                0x08006cc4                RCC_HSICmd
 .text.RCC_GetClocksFreq
                0x08006cd0       0x88 build_enddevice_f103_stm32f10x/stm32f10x_rcc.o
                0x08006cd0                RCC_GetClocksFreq
 .text.RCC_APB2PeriphClockCmd
                0x08006d58       0x18 build_enddevice_f103_stm32f10x/stm32f10x_rcc.o
                0x08006d58                RCC_APB2PeriphClockCmd
 .text.RCC_APB1PeriphClockCmd
                0x08006d70       0x18 build_enddevice_f103_stm32f10x/stm32f10x_rcc.o
                0x08006d70                RCC_APB1PeriphClockCmd
 .text.RCC_GetFlagStatus
                0x08006d88       0x28 build_enddevice_f103_stm32f10x/stm32f10x_rcc.o
                0x08006d88                RCC_GetFlagStatus
 .text.USART_Init
                0x08006db0       0xa8 build_enddevice_f103_stm32f10x/stm32f10x_usart.o
                0x08006db0                USART_Init
 .text.USART_Cmd
                0x08006e58       0x18 build_enddevice_f103_stm32f10x/stm32f10x_usart.o
                0x08006e58                USART_Cmd
 .text.USART_ITConfig
                0x08006e70       0x30 build_enddevice_f103_stm32f10x/stm32f10x_usart.o
                0x08006e70                USART_ITConfig
 .text.USART_SendData
                0x08006ea0        0x8 build_enddevice_f103_stm32f10x/stm32f10x_usart.o
                0x08006ea0                USART_SendData
 .text.USART_ReceiveData
                0x08006ea8        0x8 build_enddevice_f103_stm32f10x/stm32f10x_usart.o
                0x08006ea8                USART_ReceiveData
 .text.USART_GetFlagStatus
                0x08006eb0        0xc build_enddevice_f103_stm32f10x/stm32f10x_usart.o
                0x08006eb0                USART_GetFlagStatus
 .text.USART_GetITStatus
                0x08006ebc       0x40 build_enddevice_f103_stm32f10x/stm32f10x_usart.o
                0x08006ebc                USART_GetITStatus
 .text.USART_ClearITPendingBit
                0x08006efc       0x10 build_enddevice_f103_stm32f10x/stm32f10x_usart.o
                0x08006efc                USART_ClearITPendingBit
 .text.SPI_Init
                0x08006f0c       0x3e build_enddevice_f103_stm32f10x/stm32f10x_spi.o
                0x08006f0c                SPI_Init
 .text.SPI_Cmd  0x08006f4a       0x18 build_enddevice_f103_stm32f10x/stm32f10x_spi.o
                0x08006f4a                SPI_Cmd
 .text.SPI_I2S_SendData
                0x08006f62        0x4 build_enddevice_f103_stm32f10x/stm32f10x_spi.o
                0x08006f62                SPI_I2S_SendData
 .text.SPI_I2S_ReceiveData
                0x08006f66        0x6 build_enddevice_f103_stm32f10x/stm32f10x_spi.o
                0x08006f66                SPI_I2S_ReceiveData
 .text.SPI_I2S_GetFlagStatus
                0x08006f6c        0xc build_enddevice_f103_stm32f10x/stm32f10x_spi.o
                0x08006f6c                SPI_I2S_GetFlagStatus
 .text.NVIC_PriorityGroupConfig
                0x08006f78       0x14 build_enddevice_f103_stm32f10x/misc.o
                0x08006f78                NVIC_PriorityGroupConfig
 .text.NVIC_Init
                0x08006f8c       0x6c build_enddevice_f103_stm32f10x/misc.o
                0x08006f8c                NVIC_Init
 .text.EXTI_Init
                0x08006ff8       0x74 build_enddevice_f103_stm32f10x/stm32f10x_exti.o
                0x08006ff8                EXTI_Init
 .text.EXTI_GetITStatus
                0x0800706c       0x1c build_enddevice_f103_stm32f10x/stm32f10x_exti.o
                0x0800706c                EXTI_GetITStatus
 .text.EXTI_ClearITPendingBit
                0x08007088        0xc build_enddevice_f103_stm32f10x/stm32f10x_exti.o
                0x08007088                EXTI_ClearITPendingBit
 .text.TIM_TimeBaseInit
                0x08007094       0x94 build_enddevice_f103_stm32f10x/stm32f10x_tim.o
                0x08007094                TIM_TimeBaseInit
 .text.TIM_Cmd  0x08007128       0x18 build_enddevice_f103_stm32f10x/stm32f10x_tim.o
                0x08007128                TIM_Cmd
 .text.TIM_DMACmd
                0x08007140       0x12 build_enddevice_f103_stm32f10x/stm32f10x_tim.o
                0x08007140                TIM_DMACmd
 .text.TIM_ITConfig
                0x08007152        0x4 build_enddevice_f103_stm32f10x/stm32f10x_tim.o
                0x08007152                TIM_ITConfig
 .text.TIM_GetITStatus
                0x08007156       0x16 build_enddevice_f103_stm32f10x/stm32f10x_tim.o
                0x08007156                TIM_GetITStatus
 .text.TIM_ClearITPendingBit
                0x0800716c        0x8 build_enddevice_f103_stm32f10x/stm32f10x_tim.o
                0x0800716c                TIM_ClearITPendingBit
 .text.IWDG_WriteAccessCmd
                0x08007174        0xc build_enddevice_f103_stm32f10x/stm32f10x_iwdg.o
                0x08007174                IWDG_WriteAccessCmd
 .text.IWDG_SetPrescaler
                0x08007180        0xc build_enddevice_f103_stm32f10x/stm32f10x_iwdg.o
                0x08007180                IWDG_SetPrescaler
 .text.IWDG_SetReload
                0x0800718c        0xc build_enddevice_f103_stm32f10x/stm32f10x_iwdg.o
                0x0800718c                IWDG_SetReload
 .text.IWDG_ReloadCounter
                0x08007198       0x10 build_enddevice_f103_stm32f10x/stm32f10x_iwdg.o
                0x08007198                IWDG_ReloadCounter
 .text.IWDG_Enable
                0x080071a8       0x10 build_enddevice_f103_stm32f10x/stm32f10x_iwdg.o
                0x080071a8                IWDG_Enable
 .text.disable_interrupts
                0x080071b8        0x4 build_enddevice_f103_stm32f10x/stm32.o
                0x080071b8                disable_interrupts
 .text.entry_critical
                0x080071bc       0x14 build_enddevice_f103_stm32f10x/stm32.o
                0x080071bc                entry_critical
 .text.exit_critical
                0x080071d0       0x18 build_enddevice_f103_stm32f10x/stm32.o
                0x080071d0                exit_critical
 .text.shell_handler
                0x080071e8       0x20 build_enddevice_f103_stm32f10x/system.o
 .text.default_handler
                0x08007208        0xc build_enddevice_f103_stm32f10x/system.o
                0x08007208                svc_handler
                0x08007208                default_handler
                0x08007208                dg_monitor_handler
                0x08007208                pendsv_handler
 .text.nmi_handler
                0x08007214        0xc build_enddevice_f103_stm32f10x/system.o
                0x08007214                nmi_handler
 .text.hard_fault_handler
                0x08007220        0xc build_enddevice_f103_stm32f10x/system.o
                0x08007220                hard_fault_handler
 .text.mem_manage_handler
                0x0800722c        0xc build_enddevice_f103_stm32f10x/system.o
                0x0800722c                mem_manage_handler
 .text.bus_fault_handler
                0x08007238        0xc build_enddevice_f103_stm32f10x/system.o
                0x08007238                bus_fault_handler
 .text.usage_fault_handler
                0x08007244        0xc build_enddevice_f103_stm32f10x/system.o
                0x08007244                usage_fault_handler
 .text.systick_handler
                0x08007250       0x3c build_enddevice_f103_stm32f10x/system.o
                0x08007250                systick_handler
 .text.exti_line4_irq
                0x0800728c       0x1a build_enddevice_f103_stm32f10x/system.o
                0x0800728c                exti_line4_irq
 .text.exti_line9_5_irq
                0x080072a6       0x7a build_enddevice_f103_stm32f10x/system.o
                0x080072a6                exti_line9_5_irq
 .text.timer4_irq
                0x08007320       0x24 build_enddevice_f103_stm32f10x/system.o
                0x08007320                timer4_irq
 .text.sys_ctrl_delay
                0x08007344        0x8 build_enddevice_f103_stm32f10x/system.o
                0x08007344                sys_ctrl_delay
 .text.reset_handler
                0x0800734c       0xd0 build_enddevice_f103_stm32f10x/system.o
                0x0800734c                reset_handler
 .text.sys_ctrl_millis
                0x0800741c       0x1c build_enddevice_f103_stm32f10x/system.o
                0x0800741c                sys_ctrl_millis
 .text._init    0x08007438        0x2 build_enddevice_f103_stm32f10x/system.o
                0x08007438                _init
 *fill*         0x0800743a        0x2 
 .text.xputchar
                0x0800743c       0x1c build_enddevice_f103_stm32f10x/sys_cfg.o
 .text.sys_cfg_clock
                0x08007458       0x1a build_enddevice_f103_stm32f10x/sys_cfg.o
                0x08007458                sys_cfg_clock
 *fill*         0x08007472        0x2 
 .text.sys_cfg_tick
                0x08007474       0x38 build_enddevice_f103_stm32f10x/sys_cfg.o
                0x08007474                sys_cfg_tick
 .text.sys_cfg_console
                0x080074ac       0xcc build_enddevice_f103_stm32f10x/sys_cfg.o
                0x080074ac                sys_cfg_console
 .text.sys_cfg_update_info
                0x08007578      0x14c build_enddevice_f103_stm32f10x/sys_cfg.o
                0x08007578                sys_cfg_update_info
 .text.sys_ctrl_shell_get_char
                0x080076c4       0x24 build_enddevice_f103_stm32f10x/sys_cfg.o
                0x080076c4                sys_ctrl_shell_get_char
 .text.sys_ctrl_reset
                0x080076e8       0x20 build_enddevice_f103_stm32f10x/sys_cfg.o
                0x080076e8                sys_ctrl_reset
 .text.sys_ctrl_delay_us
                0x08007708       0x28 build_enddevice_f103_stm32f10x/sys_cfg.o
                0x08007708                sys_ctrl_delay_us
 .text.sys_ctrl_delay_ms
                0x08007730       0x1a build_enddevice_f103_stm32f10x/sys_cfg.o
                0x08007730                sys_ctrl_delay_ms
 .text.sys_ctrl_independent_watchdog_init
                0x0800774a       0x2e build_enddevice_f103_stm32f10x/sys_cfg.o
                0x0800774a                sys_ctrl_independent_watchdog_init
 .text.sys_ctrl_independent_watchdog_reset
                0x08007778       0x12 build_enddevice_f103_stm32f10x/sys_cfg.o
                0x08007778                sys_ctrl_independent_watchdog_reset
 *fill*         0x0800778a        0x2 
 .text.sys_ctrl_soft_watchdog_init
                0x0800778c       0x70 build_enddevice_f103_stm32f10x/sys_cfg.o
                0x0800778c                sys_ctrl_soft_watchdog_init
 .text.sys_ctrl_soft_watchdog_reset
                0x080077fc       0x18 build_enddevice_f103_stm32f10x/sys_cfg.o
                0x080077fc                sys_ctrl_soft_watchdog_reset
 .text.sys_ctrl_soft_watchdog_increase_counter
                0x08007814       0x28 build_enddevice_f103_stm32f10x/sys_cfg.o
                0x08007814                sys_ctrl_soft_watchdog_increase_counter
 .text.sys_ctrl_get_firmware_info
                0x0800783c       0x38 build_enddevice_f103_stm32f10x/sys_cfg.o
                0x0800783c                sys_ctrl_get_firmware_info
 .text.led_life_init
                0x08007874       0x30 build_enddevice_f103_stm32f10x/io_cfg.o
                0x08007874                led_life_init
 .text.led_life_on
                0x080078a4       0x10 build_enddevice_f103_stm32f10x/io_cfg.o
                0x080078a4                led_life_on
 .text.led_life_off
                0x080078b4       0x10 build_enddevice_f103_stm32f10x/io_cfg.o
                0x080078b4                led_life_off
 .text.io_button_init
                0x080078c4       0x30 build_enddevice_f103_stm32f10x/io_cfg.o
                0x080078c4                io_button_init
 .text.io_button_read
                0x080078f4       0x10 build_enddevice_f103_stm32f10x/io_cfg.o
                0x080078f4                io_button_read
 .text.spi1_cfg
                0x08007904       0x9c build_enddevice_f103_stm32f10x/io_cfg.o
                0x08007904                spi1_cfg
 .text.sx1276_io_ctrl_init
                0x080079a0       0xe0 build_enddevice_f103_stm32f10x/io_cfg.o
                0x080079a0                sx1276_io_ctrl_init
 .text.sx1276_io_irq_ctrl_init
                0x08007a80       0x4e build_enddevice_f103_stm32f10x/io_cfg.o
                0x08007a80                sx1276_io_irq_ctrl_init
 *fill*         0x08007ace        0x2 
 .text.sx1276_cs_low
                0x08007ad0        0xc build_enddevice_f103_stm32f10x/io_cfg.o
                0x08007ad0                sx1276_cs_low
 .text.sx1276_cs_high
                0x08007adc        0xc build_enddevice_f103_stm32f10x/io_cfg.o
                0x08007adc                sx1276_cs_high
 .text.sx1276_rst_low
                0x08007ae8        0xc build_enddevice_f103_stm32f10x/io_cfg.o
                0x08007ae8                sx1276_rst_low
 .text.sx1276_rst_to_input
                0x08007af4       0x28 build_enddevice_f103_stm32f10x/io_cfg.o
                0x08007af4                sx1276_rst_to_input
 .text.sx1276_transfer
                0x08007b1c       0x3c build_enddevice_f103_stm32f10x/io_cfg.o
                0x08007b1c                sx1276_transfer
 .text.sx1276_set_rxen
                0x08007b58       0x1c build_enddevice_f103_stm32f10x/io_cfg.o
                0x08007b58                sx1276_set_rxen
 .text.sx1276_set_txen
                0x08007b74       0x1c build_enddevice_f103_stm32f10x/io_cfg.o
                0x08007b74                sx1276_set_txen
 .text.get_device_Eui
                0x08007b90        0xc build_enddevice_f103_stm32f10x/io_cfg.o
                0x08007b90                get_device_Eui
 .text.main_app
                0x08007b9c       0x9c build_enddevice_f103_stm32f10x/app.o
                0x08007b9c                main_app
 .text.sys_irq_timer_10ms
                0x08007c38        0xc build_enddevice_f103_stm32f10x/app.o
                0x08007c38                sys_irq_timer_10ms
 .text._ZL10shell_testPh
                0x08007c44       0x14 build_enddevice_f103_stm32f10x/shell.o
 .text._ZL12shell_rebootPh
                0x08007c58        0xa build_enddevice_f103_stm32f10x/shell.o
 *fill*         0x08007c62        0x2 
 .text._ZL10shell_helpPh
                0x08007c64       0x30 build_enddevice_f103_stm32f10x/shell.o
 .text._ZL9shell_verPh
                0x08007c94       0x3c build_enddevice_f103_stm32f10x/shell.o
 .text._ZL11shell_resetPh
                0x08007cd0       0x10 build_enddevice_f103_stm32f10x/shell.o
 .text._Z15button_callbackPv
                0x08007ce0       0x5c build_enddevice_f103_stm32f10x/app_bsp.o
                0x08007ce0                button_callback(void*)
 .text._ZL14McpsIndicationP15sMcpsIndication
                0x08007d3c       0x4c build_enddevice_f103_stm32f10x/lorawan.o
 .text._ZL11McpsConfirmP12sMcpsConfirm
                0x08007d88       0x48 build_enddevice_f103_stm32f10x/lorawan.o
 .text._Z12lorawan_initv
                0x08007dd0       0xa8 build_enddevice_f103_stm32f10x/lorawan.o
                0x08007dd0                lorawan_init()
 .text._Z12lorawan_joinv
                0x08007e78       0x74 build_enddevice_f103_stm32f10x/lorawan.o
                0x08007e78                lorawan_join()
 .text._ZL11MlmeConfirmP12sMlmeConfirm
                0x08007eec       0x5c build_enddevice_f103_stm32f10x/lorawan.o
 .text._Z12lorawan_sendv
                0x08007f48       0x74 build_enddevice_f103_stm32f10x/lorawan.o
                0x08007f48                lorawan_send()
 .text._Z13lorawan_leavev
                0x08007fbc       0x50 build_enddevice_f103_stm32f10x/lorawan.o
                0x08007fbc                lorawan_leave()
 .text._Z19lora_ping_pong_sendv
                0x0800800c       0x4c build_enddevice_f103_stm32f10x/lora_ping_pong.o
                0x0800800c                lora_ping_pong_send()
 .text.sys_irq_shell
                0x08008058       0x74 build_enddevice_f103_stm32f10x/task_shell.o
                0x08008058                sys_irq_shell
 .text._Z10task_shellP8ak_msg_t
                0x080080cc       0x84 build_enddevice_f103_stm32f10x/task_shell.o
                0x080080cc                task_shell(ak_msg_t*)
 .text._Z9task_lifeP8ak_msg_t
                0x08008150       0x20 build_enddevice_f103_stm32f10x/task_life.o
                0x08008150                task_life(ak_msg_t*)
 .text._Z12task_loramacP8ak_msg_t
                0x08008170       0x2e build_enddevice_f103_stm32f10x/task_loramac.o
                0x08008170                task_loramac(ak_msg_t*)
 .text.sys_irq_sx1276_dio_0
                0x0800819e        0x4 build_enddevice_f103_stm32f10x/task_loramac.o
                0x0800819e                sys_irq_sx1276_dio_0
 .text.sys_irq_sx1276_dio_1
                0x080081a2        0x4 build_enddevice_f103_stm32f10x/task_loramac.o
                0x080081a2                sys_irq_sx1276_dio_1
 .text.sys_irq_sx1276_dio_2
                0x080081a6        0x4 build_enddevice_f103_stm32f10x/task_loramac.o
                0x080081a6                sys_irq_sx1276_dio_2
 .text.sys_irq_sx1276_dio_3
                0x080081aa        0x4 build_enddevice_f103_stm32f10x/task_loramac.o
                0x080081aa                sys_irq_sx1276_dio_3
 .text.sys_irq_sx1276_dio_4
                0x080081ae        0x4 build_enddevice_f103_stm32f10x/task_loramac.o
                0x080081ae                sys_irq_sx1276_dio_4
 .text.sys_irq_sx1276_dio_5
                0x080081b2        0x4 build_enddevice_f103_stm32f10x/task_loramac.o
                0x080081b2                sys_irq_sx1276_dio_5
 *fill*         0x080081b6        0x2 
 .text._Z7task_uiP8ak_msg_t
                0x080081b8       0x48 build_enddevice_f103_stm32f10x/task_ui.o
                0x080081b8                task_ui(ak_msg_t*)
 .text.startup._GLOBAL__sub_I__ZN8SPIClassC2Ev
                0x08008200       0x10 build_enddevice_f103_stm32f10x/SPI.o
 .text.memset   0x08008210       0x9c /home/binhnt/opt/gcc-arm-none-eabi-5_4-2016q3/arm-none-eabi/lib/armv7-m/libc.a(lib_a-memset.o)
                0x08008210                memset
 *fill*         0x080082ac        0x4 
 .text.ceil     0x080082b0      0x110 /home/binhnt/opt/gcc-arm-none-eabi-5_4-2016q3/arm-none-eabi/lib/armv7-m/libm.a(lib_a-s_ceil.o)
                0x080082b0                ceil
 .text.floor    0x080083c0      0x110 /home/binhnt/opt/gcc-arm-none-eabi-5_4-2016q3/arm-none-eabi/lib/armv7-m/libm.a(lib_a-s_floor.o)
                0x080083c0                floor
 .text.round    0x080084d0       0xa0 /home/binhnt/opt/gcc-arm-none-eabi-5_4-2016q3/arm-none-eabi/lib/armv7-m/libm.a(lib_a-s_round.o)
                0x080084d0                round
 *(.rodata)
 .rodata        0x08008570       0x24 build_enddevice_f103_stm32f10x/RegionEU433.o
 *(.rodata*)
 .rodata.str1.1
                0x08008594        0x3 build_enddevice_f103_stm32f10x/message.o
 .rodata.log2lkup.4672
                0x08008597      0x100 build_enddevice_f103_stm32f10x/task.o
 .rodata.str1.1
                0x08008697       0x10 build_enddevice_f103_stm32f10x/task.o
 .rodata.str1.1
                0x080086a7        0x3 build_enddevice_f103_stm32f10x/timer.o
 .rodata.gfm3_sbox
                0x080086aa      0x100 build_enddevice_f103_stm32f10x/aes.o
 .rodata.sbox   0x080087aa      0x100 build_enddevice_f103_stm32f10x/aes.o
 .rodata.gfm2_sbox
                0x080088aa      0x100 build_enddevice_f103_stm32f10x/aes.o
 .rodata.MaxPayloadOfDatarateRepeaterEU433
                0x080089aa        0x8 build_enddevice_f103_stm32f10x/RegionEU433.o
 *fill*         0x080089b2        0x2 
 .rodata.BandwidthsEU433
                0x080089b4       0x20 build_enddevice_f103_stm32f10x/RegionEU433.o
 .rodata.DataratesEU433
                0x080089d4        0x8 build_enddevice_f103_stm32f10x/RegionEU433.o
 .rodata.MaxPayloadOfDatarateEU433
                0x080089dc        0x8 build_enddevice_f103_stm32f10x/RegionEU433.o
 .rodata.LoRaMacMaxEirpTable
                0x080089e4       0x10 build_enddevice_f103_stm32f10x/LoRaMac.o
 .rodata.str1.1
                0x080089f4       0x7f build_enddevice_f103_stm32f10x/LoRaMac.o
 *fill*         0x08008a73        0x5 
 .rodata.CSWTCH.45
                0x08008a78       0x18 build_enddevice_f103_stm32f10x/sx1276.o
 .rodata.str1.1
                0x08008a90       0x7a build_enddevice_f103_stm32f10x/sx1276.o
 .rodata.RadioRegsInit
                0x08008b0a       0x30 build_enddevice_f103_stm32f10x/sx1276.o
                0x08008b0a                RadioRegsInit
 *fill*         0x08008b3a        0x2 
 .rodata.FskBandwidths
                0x08008b3c       0xb0 build_enddevice_f103_stm32f10x/sx1276.o
                0x08008b3c                FskBandwidths
 .rodata.Radio  0x08008bec       0x5c build_enddevice_f103_stm32f10x/sx1276_cfg.o
                0x08008bec                Radio
 .rodata.str1.1
                0x08008c48        0x3 build_enddevice_f103_stm32f10x/xprintf.o
 .rodata.str1.1
                0x08008c4b        0x7 build_enddevice_f103_stm32f10x/sys_dbg.o
 .rodata.str1.1
                0x08008c52        0x3 build_enddevice_f103_stm32f10x/system.o
 .rodata.str1.1
                0x08008c55      0x143 build_enddevice_f103_stm32f10x/sys_cfg.o
                                0x145 (size before relaxing)
 .rodata.str1.1
                0x08008d98       0x15 build_enddevice_f103_stm32f10x/app.o
 .rodata.str1.1
                0x08008dad       0xcf build_enddevice_f103_stm32f10x/shell.o
                                 0xd3 (size before relaxing)
 .rodata.str1.1
                0x08008e7c       0xcc build_enddevice_f103_stm32f10x/app_bsp.o
 .rodata.str1.1
                0x08008f48      0x1e0 build_enddevice_f103_stm32f10x/lorawan.o
                                0x1e2 (size before relaxing)
 .rodata._ZL7NwkSKey
                0x08009128       0x10 build_enddevice_f103_stm32f10x/lorawan.o
 .rodata._ZL7AppSKey
                0x08009138       0x10 build_enddevice_f103_stm32f10x/lorawan.o
 .rodata.str1.1
                0x08009148       0x85 build_enddevice_f103_stm32f10x/lora_ping_pong.o
                                 0x8e (size before relaxing)
 .rodata.str1.1
                0x080091cd       0x74 build_enddevice_f103_stm32f10x/task_shell.o
 *(.glue_7)
 .glue_7        0x08009241        0x0 linker stubs
 *(.glue_7t)
 .glue_7t       0x08009241        0x0 linker stubs
 *(.init)
 *(.fini)
                0x08009244                . = ALIGN (0x4)
 *fill*         0x08009241        0x3 
                0x08009244                _etext = .

.vfp11_veneer   0x08009244        0x0
 .vfp11_veneer  0x08009244        0x0 linker stubs

.v4_bx          0x08009244        0x0
 .v4_bx         0x08009244        0x0 linker stubs

.iplt           0x08009244        0x0
 .iplt          0x08009244        0x0 build_enddevice_f103_stm32f10x/message.o

.rel.dyn        0x08009244        0x0
 .rel.iplt      0x08009244        0x0 build_enddevice_f103_stm32f10x/message.o

.preinit_array  0x08009244        0x0
                0x08009244                PROVIDE (__preinit_array_start, .)
 *(SORT(.preinit_array.*))
 *(.preinit_array*)
                0x08009244                PROVIDE (__preinit_array_end, .)

.init_array     0x08009244        0x4
                0x08009244                PROVIDE (__init_array_start, .)
 *(SORT(.init_array.*))
 *(.init_array*)
 .init_array    0x08009244        0x4 build_enddevice_f103_stm32f10x/SPI.o
                0x08009248                PROVIDE (__init_array_end, .)

.fini_array     0x08009248        0x0
                [!provide]                PROVIDE (__fini_array_start, .)
 *(.fini_array*)
 *(SORT(.fini_array.*))
                [!provide]                PROVIDE (__fini_array_end, .)

.end_flash      0x08009248        0x0
                0x08009248                _end_flash = .

.start_ram      0x20000000        0x0
                0x20000000                _start_ram = .

.data           0x20000000       0xd4 load address 0x08009248
                0x20000000                _data = .
                0x08009248                _ldata = LOADADDR (.data)
 *(vtable)
 *(.data)
 *(.data*)
 .data.Bands    0x20000000       0x10 build_enddevice_f103_stm32f10x/RegionEU433.o
 .data.AckTimeoutRetriesCounter
                0x20000010        0x1 build_enddevice_f103_stm32f10x/LoRaMac.o
 .data.AckTimeoutRetries
                0x20000011        0x1 build_enddevice_f103_stm32f10x/LoRaMac.o
 .data.IsRxWindowsEnabled
                0x20000012        0x1 build_enddevice_f103_stm32f10x/LoRaMac.o
 .data.MicBlockB0
                0x20000013       0x10 build_enddevice_f103_stm32f10x/LoRaMacCrypto.o
 .data.aBlock   0x20000023       0x10 build_enddevice_f103_stm32f10x/LoRaMacCrypto.o
 .data.AHBPrescTable
                0x20000033       0x10 build_enddevice_f103_stm32f10x/system_stm32f10x.o
                0x20000033                AHBPrescTable
 *fill*         0x20000043        0x1 
 .data.SystemCoreClock
                0x20000044        0x4 build_enddevice_f103_stm32f10x/system_stm32f10x.o
                0x20000044                SystemCoreClock
 .data.ADCPrescTable
                0x20000048        0x4 build_enddevice_f103_stm32f10x/stm32f10x_rcc.o
 .data.APBAHBPrescTable
                0x2000004c       0x10 build_enddevice_f103_stm32f10x/stm32f10x_rcc.o
 .data.lgn_cmd_table
                0x2000005c       0x48 build_enddevice_f103_stm32f10x/shell.o
                0x2000005c                lgn_cmd_table
 .data.app_task_table
                0x200000a4       0x30 build_enddevice_f103_stm32f10x/task_list.o
                0x200000a4                app_task_table
                0x200000d4                _edata = .

.igot.plt       0x200000d4        0x0 load address 0x0800931c
 .igot.plt      0x200000d4        0x0 build_enddevice_f103_stm32f10x/message.o

.bss            0x200000d4     0x1c20 load address 0x0800931c
                0x200000d4                _bss = .
 *(.bss)
 *(.bss*)
 .bss.msg_common_pool
                0x200000d4      0x300 build_enddevice_f103_stm32f10x/message.o
 .bss.free_list_common_msg_pool
                0x200003d4        0x4 build_enddevice_f103_stm32f10x/message.o
 .bss.data_msg_dynamic_pool
                0x200003d8      0x400 build_enddevice_f103_stm32f10x/message.o
 .bss.msg_dynamic_pool
                0x200007d8      0x120 build_enddevice_f103_stm32f10x/message.o
 .bss.head_data_msg_dynamic_pool
                0x200008f8        0x4 build_enddevice_f103_stm32f10x/message.o
 .bss.tail_data_msg_dynamic_pool
                0x200008fc        0x4 build_enddevice_f103_stm32f10x/message.o
 .bss.free_list_pure_msg_pool
                0x20000900        0x4 build_enddevice_f103_stm32f10x/message.o
 .bss.msg_pure_pool
                0x20000904      0x380 build_enddevice_f103_stm32f10x/message.o
 .bss.free_list_dynamic_msg_pool
                0x20000c84        0x4 build_enddevice_f103_stm32f10x/message.o
 .bss.task_dbg_active_obj_queue
                0x20000c88      0x400 build_enddevice_f103_stm32f10x/task.o
 .bss.task_ready
                0x20001088        0x1 build_enddevice_f103_stm32f10x/task.o
 .bss.task_table_size
                0x20001089        0x1 build_enddevice_f103_stm32f10x/task.o
 .bss.current_task_id
                0x2000108a        0x1 build_enddevice_f103_stm32f10x/task.o
 *fill*         0x2000108b        0x1 
 .bss.current_task_info
                0x2000108c        0x8 build_enddevice_f103_stm32f10x/task.o
 .bss.task_current
                0x20001094        0x1 build_enddevice_f103_stm32f10x/task.o
 *fill*         0x20001095        0x3 
 .bss.current_active_object
                0x20001098       0x1c build_enddevice_f103_stm32f10x/task.o
 .bss.task_table
                0x200010b4        0x4 build_enddevice_f103_stm32f10x/task.o
 .bss.task_pri_queue
                0x200010b8       0x60 build_enddevice_f103_stm32f10x/task.o
 .bss.timer_pool
                0x20001118      0x100 build_enddevice_f103_stm32f10x/timer.o
 .bss.timer_list_head
                0x20001218        0x4 build_enddevice_f103_stm32f10x/timer.o
 .bss.free_list_timer_pool
                0x2000121c        0x4 build_enddevice_f103_stm32f10x/timer.o
 .bss.ChannelsMask
                0x20001220        0x2 build_enddevice_f103_stm32f10x/RegionEU433.o
 *fill*         0x20001222        0x2 
 .bss.Channels  0x20001224       0xc0 build_enddevice_f103_stm32f10x/RegionEU433.o
 .bss.ChannelsDefaultMask
                0x200012e4        0x2 build_enddevice_f103_stm32f10x/RegionEU433.o
 .bss.LastTxChannel
                0x200012e6        0x1 build_enddevice_f103_stm32f10x/LoRaMac.o
 *fill*         0x200012e7        0x1 
 .bss.McpsIndication
                0x200012e8       0x18 build_enddevice_f103_stm32f10x/LoRaMac.o
 .bss.AggregatedDCycle
                0x20001300        0x2 build_enddevice_f103_stm32f10x/LoRaMac.o
 *fill*         0x20001302        0x2 
 .bss.AggregatedLastTxDoneTime
                0x20001304        0x4 build_enddevice_f103_stm32f10x/LoRaMac.o
 .bss.LoRaMacAppKey
                0x20001308        0x4 build_enddevice_f103_stm32f10x/LoRaMac.o
 .bss.AggregatedTimeOff
                0x2000130c        0x4 build_enddevice_f103_stm32f10x/LoRaMac.o
 .bss.RxSlot    0x20001310        0x1 build_enddevice_f103_stm32f10x/LoRaMac.o
 *fill*         0x20001311        0x3 
 .bss.LoRaMacInitializationTime
                0x20001314        0x4 build_enddevice_f103_stm32f10x/LoRaMac.o
 .bss.AdrCtrlOn
                0x20001318        0x1 build_enddevice_f103_stm32f10x/LoRaMac.o
 .bss.SrvAckRequested
                0x20001319        0x1 build_enddevice_f103_stm32f10x/LoRaMac.o
 *fill*         0x2000131a        0x2 
 .bss.DownLinkCounter
                0x2000131c        0x4 build_enddevice_f103_stm32f10x/LoRaMac.o
 .bss.MacCommandsInNextTx
                0x20001320        0x1 build_enddevice_f103_stm32f10x/LoRaMac.o
 *fill*         0x20001321        0x3 
 .bss.RxWindow2Delay
                0x20001324        0x4 build_enddevice_f103_stm32f10x/LoRaMac.o
 .bss.MaxDCycle
                0x20001328        0x1 build_enddevice_f103_stm32f10x/LoRaMac.o
 .bss.JoinRequestTrials
                0x20001329        0x1 build_enddevice_f103_stm32f10x/LoRaMac.o
 .bss.Channel   0x2000132a        0x1 build_enddevice_f103_stm32f10x/LoRaMac.o
 *fill*         0x2000132b        0x1 
 .bss.AdrAckCounter
                0x2000132c        0x4 build_enddevice_f103_stm32f10x/LoRaMac.o
 .bss.LoRaMacAppEui
                0x20001330        0x4 build_enddevice_f103_stm32f10x/LoRaMac.o
 .bss.LoRaMacCallbacks
                0x20001334        0x4 build_enddevice_f103_stm32f10x/LoRaMac.o
 .bss.MacCommandsBuffer
                0x20001338       0x80 build_enddevice_f103_stm32f10x/LoRaMac.o
 .bss.LoRaMacState
                0x200013b8        0x4 build_enddevice_f103_stm32f10x/LoRaMac.o
                0x200013b8                LoRaMacState
 .bss.McpsConfirm
                0x200013bc       0x14 build_enddevice_f103_stm32f10x/LoRaMac.o
 .bss.IsLoRaMacNetworkJoined
                0x200013d0        0x1 build_enddevice_f103_stm32f10x/LoRaMac.o
 .bss.IsUpLinkCounterFixed
                0x200013d1        0x1 build_enddevice_f103_stm32f10x/LoRaMac.o
 *fill*         0x200013d2        0x2 
 .bss.TxTimeOnAir
                0x200013d4        0x4 build_enddevice_f103_stm32f10x/LoRaMac.o
                0x200013d4                TxTimeOnAir
 .bss.DutyCycleOn
                0x200013d8        0x1 build_enddevice_f103_stm32f10x/LoRaMac.o
 .bss.MacCommandsBufferIndex
                0x200013d9        0x1 build_enddevice_f103_stm32f10x/LoRaMac.o
 .bss.LoRaMacAppSKey
                0x200013da       0x10 build_enddevice_f103_stm32f10x/LoRaMac.o
 *fill*         0x200013ea        0x2 
 .bss.LoRaMacPrimitives
                0x200013ec        0x4 build_enddevice_f103_stm32f10x/LoRaMac.o
 .bss.LoRaMacRxPayload
                0x200013f0       0xff build_enddevice_f103_stm32f10x/LoRaMac.o
 .bss.NodeAckRequested
                0x200014ef        0x1 build_enddevice_f103_stm32f10x/LoRaMac.o
 .bss.LoRaMacBufferPktLen
                0x200014f0        0x2 build_enddevice_f103_stm32f10x/LoRaMac.o
 *fill*         0x200014f2        0x2 
 .bss.MlmeConfirm
                0x200014f4        0xc build_enddevice_f103_stm32f10x/LoRaMac.o
 .bss.LastTxIsJoinRequest
                0x20001500        0x1 build_enddevice_f103_stm32f10x/LoRaMac.o
 .bss.MacCommandsBufferToRepeat
                0x20001501       0x80 build_enddevice_f103_stm32f10x/LoRaMac.o
 *fill*         0x20001581        0x3 
 .bss.LoRaMacNetID
                0x20001584        0x4 build_enddevice_f103_stm32f10x/LoRaMac.o
 .bss.PublicNetwork
                0x20001588        0x1 build_enddevice_f103_stm32f10x/LoRaMac.o
 *fill*         0x20001589        0x3 
 .bss.MulticastChannels
                0x2000158c        0x4 build_enddevice_f103_stm32f10x/LoRaMac.o
 .bss.ChannelsNbRepCounter
                0x20001590        0x1 build_enddevice_f103_stm32f10x/LoRaMac.o
 *fill*         0x20001591        0x1 
 .bss.LoRaMacDevNonce
                0x20001592        0x2 build_enddevice_f103_stm32f10x/LoRaMac.o
 .bss.LoRaMacDevAddr
                0x20001594        0x4 build_enddevice_f103_stm32f10x/LoRaMac.o
 .bss.MaxJoinRequestTrials
                0x20001598        0x1 build_enddevice_f103_stm32f10x/LoRaMac.o
 .bss.AckTimeoutRetry
                0x20001599        0x1 build_enddevice_f103_stm32f10x/LoRaMac.o
 .bss.LoRaMacTxPayloadLen
                0x2000159a        0x1 build_enddevice_f103_stm32f10x/LoRaMac.o
 .bss.LoRaMacBuffer
                0x2000159b       0xff build_enddevice_f103_stm32f10x/LoRaMac.o
 .bss.LoRaMacNwkSKey
                0x2000169a       0x10 build_enddevice_f103_stm32f10x/LoRaMac.o
 .bss.RepeaterSupport
                0x200016aa        0x1 build_enddevice_f103_stm32f10x/LoRaMac.o
 *fill*         0x200016ab        0x1 
 .bss.random_feed
                0x200016ac        0x4 build_enddevice_f103_stm32f10x/LoRaMac.o
 .bss.MacCommandsBufferToRepeatIndex
                0x200016b0        0x1 build_enddevice_f103_stm32f10x/LoRaMac.o
 *fill*         0x200016b1        0x3 
 .bss.RxWindow1Config
                0x200016b4       0x14 build_enddevice_f103_stm32f10x/LoRaMac.o
 .bss.LoRaMacDevEui
                0x200016c8        0x4 build_enddevice_f103_stm32f10x/LoRaMac.o
 .bss.RadioEvents
                0x200016cc       0x1c build_enddevice_f103_stm32f10x/LoRaMac.o
 .bss.UpLinkCounter
                0x200016e8        0x4 build_enddevice_f103_stm32f10x/LoRaMac.o
 .bss.LoRaMacDeviceClass
                0x200016ec        0x1 build_enddevice_f103_stm32f10x/LoRaMac.o
 *fill*         0x200016ed        0x3 
 .bss.RxWindow2Config
                0x200016f0       0x14 build_enddevice_f103_stm32f10x/LoRaMac.o
 .bss.RxWindow1Delay
                0x20001704        0x4 build_enddevice_f103_stm32f10x/LoRaMac.o
 .bss.LoRaMacRegion
                0x20001708        0x1 build_enddevice_f103_stm32f10x/LoRaMac.o
 *fill*         0x20001709        0x3 
 .bss.AesCmacCtx
                0x2000170c      0x118 build_enddevice_f103_stm32f10x/LoRaMacCrypto.o
 .bss.sBlock    0x20001824       0x10 build_enddevice_f103_stm32f10x/LoRaMacCrypto.o
 .bss.AesContext
                0x20001834       0xf1 build_enddevice_f103_stm32f10x/LoRaMacCrypto.o
 .bss.Mic       0x20001925       0x10 build_enddevice_f103_stm32f10x/LoRaMacCrypto.o
 *fill*         0x20001935        0x3 
 .bss.RadioEvents
                0x20001938        0x4 build_enddevice_f103_stm32f10x/sx1276.o
 .bss.RxTxBuffer
                0x2000193c      0x100 build_enddevice_f103_stm32f10x/sx1276.o
 .bss.TxTimeoutTimer
                0x20001a3c        0x4 build_enddevice_f103_stm32f10x/sx1276.o
 .bss.RadioIsActive
                0x20001a40        0x1 build_enddevice_f103_stm32f10x/sx1276_cfg.o
 .bss.dymc_print_type
                0x20001a41        0x1 build_enddevice_f103_stm32f10x/xprintf.o
 .bss.dymc_print_buf
                0x20001a42      0x100 build_enddevice_f103_stm32f10x/xprintf.o
 .bss.nest_entry_critical_counter
                0x20001b42        0x1 build_enddevice_f103_stm32f10x/stm32.o
 *fill*         0x20001b43        0x1 
 .bss.div_counter.6892
                0x20001b44        0x4 build_enddevice_f103_stm32f10x/system.o
 .bss.millis_current
                0x20001b48        0x4 build_enddevice_f103_stm32f10x/system.o
 .bss.sys_ctrl_soft_time_out
                0x20001b4c        0x4 build_enddevice_f103_stm32f10x/sys_cfg.o
 .bss.sys_ctrl_soft_counter
                0x20001b50        0x4 build_enddevice_f103_stm32f10x/sys_cfg.o
 .bss.delay_coeficient
                0x20001b54        0x4 build_enddevice_f103_stm32f10x/sys_cfg.o
 .bss.button    0x20001b58       0x18 build_enddevice_f103_stm32f10x/app_bsp.o
                0x20001b58                button
 .bss._ZL6mibReq
                0x20001b70        0xc build_enddevice_f103_stm32f10x/lorawan.o
 .bss._ZL13LorawanDevEui
                0x20001b7c        0x8 build_enddevice_f103_stm32f10x/lorawan.o
 .bss._ZL17LoRaMacPrimitives
                0x20001b84        0xc build_enddevice_f103_stm32f10x/lorawan.o
 .bss._ZL16LoRaMacCallbacks
                0x20001b90        0x4 build_enddevice_f103_stm32f10x/lorawan.o
 .bss.shell     0x20001b94       0x11 build_enddevice_f103_stm32f10x/task_shell.o
                0x20001b94                shell
 *fill*         0x20001ba5        0x3 
 .bss.led_life  0x20001ba8       0x1c build_enddevice_f103_stm32f10x/task_life.o
                0x20001ba8                led_life
 .bss.SPI       0x20001bc4        0x2 build_enddevice_f103_stm32f10x/SPI.o
                0x20001bc4                SPI
 *(COMMON)
 *fill*         0x20001bc6        0x2 
 COMMON         0x20001bc8       0x24 build_enddevice_f103_stm32f10x/task.o
                0x20001bc8                log_task_dbg_object_queue
 COMMON         0x20001bec        0x8 build_enddevice_f103_stm32f10x/timer.o
                0x20001bec                ak_timer_payload_irq
 COMMON         0x20001bf4       0x74 build_enddevice_f103_stm32f10x/LoRaMac.o
                0x20001bf4                LoRaMacFlags
                0x20001bf8                LoRaMacParamsDefaults
                0x20001c30                LoRaMacParams
 COMMON         0x20001c68       0x64 build_enddevice_f103_stm32f10x/sx1276.o
                0x20001c68                SX1276
 COMMON         0x20001ccc        0x4 build_enddevice_f103_stm32f10x/xprintf.o
                0x20001ccc                xfunc_out
 COMMON         0x20001cd0       0x24 build_enddevice_f103_stm32f10x/system.o
                0x20001cd0                system_info
                0x20001cf4                _ebss = .

.heap           0x20001cf4        0x0
                0x20001cf4                __heap_start__ = .
                0x20001cf4                . = (. + HEAP_SIZE)
                0x20001cf4                . = ALIGN (0x4)
                0x20001cf4                __heap_end__ = .

.end_ram        0x20001cf4        0x0
                0x20001cf4                _end_ram = .
                0x20005000                _estack = (ORIGIN (SRAM) + LENGTH (SRAM))

/DISCARD/
 libc.a(*)
 libm.a(*)
 libg.a(*)
 libgcc.a(*)
LOAD /home/binhnt/opt/gcc-arm-none-eabi-5_4-2016q3/arm-none-eabi/lib/armv7-m/libc.a
LOAD /home/binhnt/opt/gcc-arm-none-eabi-5_4-2016q3/arm-none-eabi/lib/armv7-m/libm.a
LOAD /home/binhnt/opt/gcc-arm-none-eabi-5_4-2016q3/lib/gcc/arm-none-eabi/5.4.1/armv7-m/libgcc.a
LOAD /home/binhnt/opt/gcc-arm-none-eabi-5_4-2016q3/arm-none-eabi/lib/armv7-m/libg.a
LOAD build_enddevice_f103_stm32f10x/message.o
LOAD build_enddevice_f103_stm32f10x/fsm.o
LOAD build_enddevice_f103_stm32f10x/tsm.o
LOAD build_enddevice_f103_stm32f10x/task.o
LOAD build_enddevice_f103_stm32f10x/timer.o
LOAD build_enddevice_f103_stm32f10x/aes.o
LOAD build_enddevice_f103_stm32f10x/cmac.o
LOAD build_enddevice_f103_stm32f10x/Region.o
LOAD build_enddevice_f103_stm32f10x/RegionCommon.o
LOAD build_enddevice_f103_stm32f10x/RegionEU433.o
LOAD build_enddevice_f103_stm32f10x/RegionUS915.o
LOAD build_enddevice_f103_stm32f10x/LoRaMac.o
LOAD build_enddevice_f103_stm32f10x/LoRaMacCrypto.o
LOAD build_enddevice_f103_stm32f10x/sx1276.o
LOAD build_enddevice_f103_stm32f10x/sx1276_cfg.o
LOAD build_enddevice_f103_stm32f10x/utils.o
LOAD build_enddevice_f103_stm32f10x/xprintf.o
LOAD build_enddevice_f103_stm32f10x/cmd_line.o
LOAD build_enddevice_f103_stm32f10x/log_queue.o
LOAD build_enddevice_f103_stm32f10x/fifo.o
LOAD build_enddevice_f103_stm32f10x/led.o
LOAD build_enddevice_f103_stm32f10x/button.o
LOAD build_enddevice_f103_stm32f10x/sys_dbg.o
LOAD build_enddevice_f103_stm32f10x/system_stm32f10x.o
LOAD build_enddevice_f103_stm32f10x/stm32f10x_gpio.o
LOAD build_enddevice_f103_stm32f10x/stm32f10x_rcc.o
LOAD build_enddevice_f103_stm32f10x/stm32f10x_usart.o
LOAD build_enddevice_f103_stm32f10x/stm32f10x_spi.o
LOAD build_enddevice_f103_stm32f10x/misc.o
LOAD build_enddevice_f103_stm32f10x/stm32f10x_exti.o
LOAD build_enddevice_f103_stm32f10x/stm32f10x_tim.o
LOAD build_enddevice_f103_stm32f10x/stm32f10x_adc.o
LOAD build_enddevice_f103_stm32f10x/stm32f10x_rtc.o
LOAD build_enddevice_f103_stm32f10x/stm32f10x_pwr.o
LOAD build_enddevice_f103_stm32f10x/stm32f10x_flash.o
LOAD build_enddevice_f103_stm32f10x/stm32f10x_iwdg.o
LOAD build_enddevice_f103_stm32f10x/stm32f10x_dac.o
LOAD build_enddevice_f103_stm32f10x/stm32f10x_dbgmcu.o
LOAD build_enddevice_f103_stm32f10x/stm32.o
LOAD build_enddevice_f103_stm32f10x/system.o
LOAD build_enddevice_f103_stm32f10x/sys_cfg.o
LOAD build_enddevice_f103_stm32f10x/io_cfg.o
LOAD build_enddevice_f103_stm32f10x/app.o
LOAD build_enddevice_f103_stm32f10x/shell.o
LOAD build_enddevice_f103_stm32f10x/app_bsp.o
LOAD build_enddevice_f103_stm32f10x/lorawan.o
LOAD build_enddevice_f103_stm32f10x/lora_ping_pong.o
LOAD build_enddevice_f103_stm32f10x/task_shell.o
LOAD build_enddevice_f103_stm32f10x/task_life.o
LOAD build_enddevice_f103_stm32f10x/task_list.o
LOAD build_enddevice_f103_stm32f10x/task_loramac.o
LOAD build_enddevice_f103_stm32f10x/task_ui.o
LOAD build_enddevice_f103_stm32f10x/SPI.o
LOAD build_enddevice_f103_stm32f10x/wiring_digital.o
LOAD build_enddevice_f103_stm32f10x/wiring_shift.o
LOAD build_enddevice_f103_stm32f10x/Print.o
LOAD build_enddevice_f103_stm32f10x/mini_cpp.o
LOAD /home/binhnt/opt/gcc-arm-none-eabi-5_4-2016q3/arm-none-eabi/lib/armv7-m/libc.a
LOAD /home/binhnt/opt/gcc-arm-none-eabi-5_4-2016q3/arm-none-eabi/lib/armv7-m/libm.a
LOAD /home/binhnt/opt/gcc-arm-none-eabi-5_4-2016q3/lib/gcc/arm-none-eabi/5.4.1/armv7-m/libgcc.a
LOAD /home/binhnt/opt/gcc-arm-none-eabi-5_4-2016q3/arm-none-eabi/lib/armv7-m/libg.a
OUTPUT(build_enddevice_f103_stm32f10x/enddevice_f103.axf elf32-littlearm)

.debug_info     0x00000000    0x1c178
 .debug_info    0x00000000      0xe2d build_enddevice_f103_stm32f10x/message.o
 .debug_info    0x00000e2d      0x7ec build_enddevice_f103_stm32f10x/task.o
 .debug_info    0x00001619      0x673 build_enddevice_f103_stm32f10x/timer.o
 .debug_info    0x00001c8c      0x622 build_enddevice_f103_stm32f10x/aes.o
 .debug_info    0x000022ae      0x4a7 build_enddevice_f103_stm32f10x/cmac.o
 .debug_info    0x00002755     0x1464 build_enddevice_f103_stm32f10x/Region.o
 .debug_info    0x00003bb9      0xbc0 build_enddevice_f103_stm32f10x/RegionCommon.o
 .debug_info    0x00004779     0x2071 build_enddevice_f103_stm32f10x/RegionEU433.o
 .debug_info    0x000067ea     0x411e build_enddevice_f103_stm32f10x/LoRaMac.o
 .debug_info    0x0000a908      0x7cf build_enddevice_f103_stm32f10x/LoRaMacCrypto.o
 .debug_info    0x0000b0d7     0x2889 build_enddevice_f103_stm32f10x/sx1276.o
 .debug_info    0x0000d960      0xa98 build_enddevice_f103_stm32f10x/sx1276_cfg.o
 .debug_info    0x0000e3f8      0x400 build_enddevice_f103_stm32f10x/utils.o
 .debug_info    0x0000e7f8      0x54a build_enddevice_f103_stm32f10x/xprintf.o
 .debug_info    0x0000ed42      0x1d9 build_enddevice_f103_stm32f10x/cmd_line.o
 .debug_info    0x0000ef1b      0x263 build_enddevice_f103_stm32f10x/log_queue.o
 .debug_info    0x0000f17e      0x2fe build_enddevice_f103_stm32f10x/led.o
 .debug_info    0x0000f47c      0x27a build_enddevice_f103_stm32f10x/button.o
 .debug_info    0x0000f6f6      0x216 build_enddevice_f103_stm32f10x/sys_dbg.o
 .debug_info    0x0000f90c      0x4c8 build_enddevice_f103_stm32f10x/system_stm32f10x.o
 .debug_info    0x0000fdd4      0x7f3 build_enddevice_f103_stm32f10x/stm32f10x_gpio.o
 .debug_info    0x000105c7      0x8db build_enddevice_f103_stm32f10x/stm32f10x_rcc.o
 .debug_info    0x00010ea2      0xacd build_enddevice_f103_stm32f10x/stm32f10x_usart.o
 .debug_info    0x0001196f      0x9a6 build_enddevice_f103_stm32f10x/stm32f10x_spi.o
 .debug_info    0x00012315      0x55e build_enddevice_f103_stm32f10x/misc.o
 .debug_info    0x00012873      0x345 build_enddevice_f103_stm32f10x/stm32f10x_exti.o
 .debug_info    0x00012bb8     0x2010 build_enddevice_f103_stm32f10x/stm32f10x_tim.o
 .debug_info    0x00014bc8      0x211 build_enddevice_f103_stm32f10x/stm32f10x_iwdg.o
 .debug_info    0x00014dd9      0x193 build_enddevice_f103_stm32f10x/stm32.o
 .debug_info    0x00014f6c      0xb26 build_enddevice_f103_stm32f10x/system.o
 .debug_info    0x00015a92     0x1673 build_enddevice_f103_stm32f10x/sys_cfg.o
 .debug_info    0x00017105      0xea6 build_enddevice_f103_stm32f10x/io_cfg.o
 .debug_info    0x00017fab      0x5d7 build_enddevice_f103_stm32f10x/app.o
 .debug_info    0x00018582      0x39c build_enddevice_f103_stm32f10x/shell.o
 .debug_info    0x0001891e      0x348 build_enddevice_f103_stm32f10x/app_bsp.o
 .debug_info    0x00018c66     0x120e build_enddevice_f103_stm32f10x/lorawan.o
 .debug_info    0x00019e74      0x989 build_enddevice_f103_stm32f10x/lora_ping_pong.o
 .debug_info    0x0001a7fd      0x440 build_enddevice_f103_stm32f10x/task_shell.o
 .debug_info    0x0001ac3d      0x29e build_enddevice_f103_stm32f10x/task_life.o
 .debug_info    0x0001aedb      0x209 build_enddevice_f103_stm32f10x/task_list.o
 .debug_info    0x0001b0e4      0x371 build_enddevice_f103_stm32f10x/task_loramac.o
 .debug_info    0x0001b455      0x30d build_enddevice_f103_stm32f10x/task_ui.o
 .debug_info    0x0001b762      0xa16 build_enddevice_f103_stm32f10x/SPI.o

.debug_abbrev   0x00000000     0x53b6
 .debug_abbrev  0x00000000      0x378 build_enddevice_f103_stm32f10x/message.o
 .debug_abbrev  0x00000378      0x23f build_enddevice_f103_stm32f10x/task.o
 .debug_abbrev  0x000005b7      0x27f build_enddevice_f103_stm32f10x/timer.o
 .debug_abbrev  0x00000836      0x1fc build_enddevice_f103_stm32f10x/aes.o
 .debug_abbrev  0x00000a32      0x187 build_enddevice_f103_stm32f10x/cmac.o
 .debug_abbrev  0x00000bb9      0x1ce build_enddevice_f103_stm32f10x/Region.o
 .debug_abbrev  0x00000d87      0x310 build_enddevice_f103_stm32f10x/RegionCommon.o
 .debug_abbrev  0x00001097      0x3f7 build_enddevice_f103_stm32f10x/RegionEU433.o
 .debug_abbrev  0x0000148e      0x4e8 build_enddevice_f103_stm32f10x/LoRaMac.o
 .debug_abbrev  0x00001976      0x175 build_enddevice_f103_stm32f10x/LoRaMacCrypto.o
 .debug_abbrev  0x00001aeb      0x39b build_enddevice_f103_stm32f10x/sx1276.o
 .debug_abbrev  0x00001e86      0x224 build_enddevice_f103_stm32f10x/sx1276_cfg.o
 .debug_abbrev  0x000020aa      0x11b build_enddevice_f103_stm32f10x/utils.o
 .debug_abbrev  0x000021c5      0x212 build_enddevice_f103_stm32f10x/xprintf.o
 .debug_abbrev  0x000023d7      0x112 build_enddevice_f103_stm32f10x/cmd_line.o
 .debug_abbrev  0x000024e9       0xed build_enddevice_f103_stm32f10x/log_queue.o
 .debug_abbrev  0x000025d6      0x117 build_enddevice_f103_stm32f10x/led.o
 .debug_abbrev  0x000026ed      0x14a build_enddevice_f103_stm32f10x/button.o
 .debug_abbrev  0x00002837       0xda build_enddevice_f103_stm32f10x/sys_dbg.o
 .debug_abbrev  0x00002911      0x170 build_enddevice_f103_stm32f10x/system_stm32f10x.o
 .debug_abbrev  0x00002a81      0x200 build_enddevice_f103_stm32f10x/stm32f10x_gpio.o
 .debug_abbrev  0x00002c81      0x1e4 build_enddevice_f103_stm32f10x/stm32f10x_rcc.o
 .debug_abbrev  0x00002e65      0x1e6 build_enddevice_f103_stm32f10x/stm32f10x_usart.o
 .debug_abbrev  0x0000304b      0x1e8 build_enddevice_f103_stm32f10x/stm32f10x_spi.o
 .debug_abbrev  0x00003233      0x158 build_enddevice_f103_stm32f10x/misc.o
 .debug_abbrev  0x0000338b      0x1a1 build_enddevice_f103_stm32f10x/stm32f10x_exti.o
 .debug_abbrev  0x0000352c      0x2d2 build_enddevice_f103_stm32f10x/stm32f10x_tim.o
 .debug_abbrev  0x000037fe      0x114 build_enddevice_f103_stm32f10x/stm32f10x_iwdg.o
 .debug_abbrev  0x00003912       0xc4 build_enddevice_f103_stm32f10x/stm32.o
 .debug_abbrev  0x000039d6      0x29a build_enddevice_f103_stm32f10x/system.o
 .debug_abbrev  0x00003c70      0x39a build_enddevice_f103_stm32f10x/sys_cfg.o
 .debug_abbrev  0x0000400a      0x251 build_enddevice_f103_stm32f10x/io_cfg.o
 .debug_abbrev  0x0000425b      0x1a6 build_enddevice_f103_stm32f10x/app.o
 .debug_abbrev  0x00004401      0x133 build_enddevice_f103_stm32f10x/shell.o
 .debug_abbrev  0x00004534      0x14b build_enddevice_f103_stm32f10x/app_bsp.o
 .debug_abbrev  0x0000467f      0x2ea build_enddevice_f103_stm32f10x/lorawan.o
 .debug_abbrev  0x00004969      0x267 build_enddevice_f103_stm32f10x/lora_ping_pong.o
 .debug_abbrev  0x00004bd0      0x18b build_enddevice_f103_stm32f10x/task_shell.o
 .debug_abbrev  0x00004d5b       0xf1 build_enddevice_f103_stm32f10x/task_life.o
 .debug_abbrev  0x00004e4c       0xa9 build_enddevice_f103_stm32f10x/task_list.o
 .debug_abbrev  0x00004ef5      0x104 build_enddevice_f103_stm32f10x/task_loramac.o
 .debug_abbrev  0x00004ff9      0x114 build_enddevice_f103_stm32f10x/task_ui.o
 .debug_abbrev  0x0000510d      0x2a9 build_enddevice_f103_stm32f10x/SPI.o

.debug_loc      0x00000000     0xd6b9
 .debug_loc     0x00000000      0xab2 build_enddevice_f103_stm32f10x/message.o
 .debug_loc     0x00000ab2      0x1f5 build_enddevice_f103_stm32f10x/task.o
 .debug_loc     0x00000ca7      0x311 build_enddevice_f103_stm32f10x/timer.o
 .debug_loc     0x00000fb8      0x55a build_enddevice_f103_stm32f10x/aes.o
 .debug_loc     0x00001512      0x222 build_enddevice_f103_stm32f10x/cmac.o
 .debug_loc     0x00001734      0xcf8 build_enddevice_f103_stm32f10x/Region.o
 .debug_loc     0x0000242c      0x949 build_enddevice_f103_stm32f10x/RegionCommon.o
 .debug_loc     0x00002d75     0x1462 build_enddevice_f103_stm32f10x/RegionEU433.o
 .debug_loc     0x000041d7     0x23b7 build_enddevice_f103_stm32f10x/LoRaMac.o
 .debug_loc     0x0000658e      0x66d build_enddevice_f103_stm32f10x/LoRaMacCrypto.o
 .debug_loc     0x00006bfb     0x1116 build_enddevice_f103_stm32f10x/sx1276.o
 .debug_loc     0x00007d11      0x1e1 build_enddevice_f103_stm32f10x/sx1276_cfg.o
 .debug_loc     0x00007ef2      0x631 build_enddevice_f103_stm32f10x/utils.o
 .debug_loc     0x00008523      0x768 build_enddevice_f103_stm32f10x/xprintf.o
 .debug_loc     0x00008c8b       0xe7 build_enddevice_f103_stm32f10x/cmd_line.o
 .debug_loc     0x00008d72      0x1c8 build_enddevice_f103_stm32f10x/log_queue.o
 .debug_loc     0x00008f3a      0x216 build_enddevice_f103_stm32f10x/led.o
 .debug_loc     0x00009150      0x143 build_enddevice_f103_stm32f10x/button.o
 .debug_loc     0x00009293       0x6c build_enddevice_f103_stm32f10x/sys_dbg.o
 .debug_loc     0x000092ff       0x99 build_enddevice_f103_stm32f10x/system_stm32f10x.o
 .debug_loc     0x00009398      0x4ed build_enddevice_f103_stm32f10x/stm32f10x_gpio.o
 .debug_loc     0x00009885      0x672 build_enddevice_f103_stm32f10x/stm32f10x_rcc.o
 .debug_loc     0x00009ef7      0x751 build_enddevice_f103_stm32f10x/stm32f10x_usart.o
 .debug_loc     0x0000a648      0x5fa build_enddevice_f103_stm32f10x/stm32f10x_spi.o
 .debug_loc     0x0000ac42      0x161 build_enddevice_f103_stm32f10x/misc.o
 .debug_loc     0x0000ada3      0x188 build_enddevice_f103_stm32f10x/stm32f10x_exti.o
 .debug_loc     0x0000af2b     0x1c08 build_enddevice_f103_stm32f10x/stm32f10x_tim.o
 .debug_loc     0x0000cb33       0x62 build_enddevice_f103_stm32f10x/stm32f10x_iwdg.o
 .debug_loc     0x0000cb95       0x36 build_enddevice_f103_stm32f10x/system.o
 .debug_loc     0x0000cbcb      0x17a build_enddevice_f103_stm32f10x/sys_cfg.o
 .debug_loc     0x0000cd45       0xd9 build_enddevice_f103_stm32f10x/io_cfg.o
 .debug_loc     0x0000ce1e       0xb9 build_enddevice_f103_stm32f10x/shell.o
 .debug_loc     0x0000ced7      0x114 build_enddevice_f103_stm32f10x/app_bsp.o
 .debug_loc     0x0000cfeb      0x297 build_enddevice_f103_stm32f10x/lorawan.o
 .debug_loc     0x0000d282       0xdd build_enddevice_f103_stm32f10x/lora_ping_pong.o
 .debug_loc     0x0000d35f       0x87 build_enddevice_f103_stm32f10x/task_shell.o
 .debug_loc     0x0000d3e6       0x2c build_enddevice_f103_stm32f10x/task_life.o
 .debug_loc     0x0000d412       0xa9 build_enddevice_f103_stm32f10x/task_loramac.o
 .debug_loc     0x0000d4bb       0x77 build_enddevice_f103_stm32f10x/task_ui.o
 .debug_loc     0x0000d532      0x187 build_enddevice_f103_stm32f10x/SPI.o

.debug_aranges  0x00000000     0x14c8
 .debug_aranges
                0x00000000       0x98 build_enddevice_f103_stm32f10x/message.o
 .debug_aranges
                0x00000098       0x80 build_enddevice_f103_stm32f10x/task.o
 .debug_aranges
                0x00000118       0x50 build_enddevice_f103_stm32f10x/timer.o
 .debug_aranges
                0x00000168       0x40 build_enddevice_f103_stm32f10x/aes.o
 .debug_aranges
                0x000001a8       0x38 build_enddevice_f103_stm32f10x/cmac.o
 .debug_aranges
                0x000001e0       0xd0 build_enddevice_f103_stm32f10x/Region.o
 .debug_aranges
                0x000002b0       0x90 build_enddevice_f103_stm32f10x/RegionCommon.o
 .debug_aranges
                0x00000340       0xd0 build_enddevice_f103_stm32f10x/RegionEU433.o
 .debug_aranges
                0x00000410      0x150 build_enddevice_f103_stm32f10x/LoRaMac.o
 .debug_aranges
                0x00000560       0x48 build_enddevice_f103_stm32f10x/LoRaMacCrypto.o
 .debug_aranges
                0x000005a8      0x138 build_enddevice_f103_stm32f10x/sx1276.o
 .debug_aranges
                0x000006e0       0x60 build_enddevice_f103_stm32f10x/sx1276_cfg.o
 .debug_aranges
                0x00000740       0x58 build_enddevice_f103_stm32f10x/utils.o
 .debug_aranges
                0x00000798       0x40 build_enddevice_f103_stm32f10x/xprintf.o
 .debug_aranges
                0x000007d8       0x20 build_enddevice_f103_stm32f10x/cmd_line.o
 .debug_aranges
                0x000007f8       0x38 build_enddevice_f103_stm32f10x/log_queue.o
 .debug_aranges
                0x00000830       0x50 build_enddevice_f103_stm32f10x/led.o
 .debug_aranges
                0x00000880       0x38 build_enddevice_f103_stm32f10x/button.o
 .debug_aranges
                0x000008b8       0x20 build_enddevice_f103_stm32f10x/sys_dbg.o
 .debug_aranges
                0x000008d8       0x28 build_enddevice_f103_stm32f10x/system_stm32f10x.o
 .debug_aranges
                0x00000900       0xa8 build_enddevice_f103_stm32f10x/stm32f10x_gpio.o
 .debug_aranges
                0x000009a8      0x118 build_enddevice_f103_stm32f10x/stm32f10x_rcc.o
 .debug_aranges
                0x00000ac0      0x100 build_enddevice_f103_stm32f10x/stm32f10x_usart.o
 .debug_aranges
                0x00000bc0       0xd0 build_enddevice_f103_stm32f10x/stm32f10x_spi.o
 .debug_aranges
                0x00000c90       0x40 build_enddevice_f103_stm32f10x/misc.o
 .debug_aranges
                0x00000cd0       0x50 build_enddevice_f103_stm32f10x/stm32f10x_exti.o
 .debug_aranges
                0x00000d20      0x2d0 build_enddevice_f103_stm32f10x/stm32f10x_tim.o
 .debug_aranges
                0x00000ff0       0x48 build_enddevice_f103_stm32f10x/stm32f10x_iwdg.o
 .debug_aranges
                0x00001038       0x38 build_enddevice_f103_stm32f10x/stm32.o
 .debug_aranges
                0x00001070       0x90 build_enddevice_f103_stm32f10x/system.o
 .debug_aranges
                0x00001100       0xa0 build_enddevice_f103_stm32f10x/sys_cfg.o
 .debug_aranges
                0x000011a0       0xc0 build_enddevice_f103_stm32f10x/io_cfg.o
 .debug_aranges
                0x00001260       0x28 build_enddevice_f103_stm32f10x/app.o
 .debug_aranges
                0x00001288       0x40 build_enddevice_f103_stm32f10x/shell.o
 .debug_aranges
                0x000012c8       0x20 build_enddevice_f103_stm32f10x/app_bsp.o
 .debug_aranges
                0x000012e8       0x50 build_enddevice_f103_stm32f10x/lorawan.o
 .debug_aranges
                0x00001338       0x50 build_enddevice_f103_stm32f10x/lora_ping_pong.o
 .debug_aranges
                0x00001388       0x28 build_enddevice_f103_stm32f10x/task_shell.o
 .debug_aranges
                0x000013b0       0x20 build_enddevice_f103_stm32f10x/task_life.o
 .debug_aranges
                0x000013d0       0x18 build_enddevice_f103_stm32f10x/task_list.o
 .debug_aranges
                0x000013e8       0x50 build_enddevice_f103_stm32f10x/task_loramac.o
 .debug_aranges
                0x00001438       0x20 build_enddevice_f103_stm32f10x/task_ui.o
 .debug_aranges
                0x00001458       0x70 build_enddevice_f103_stm32f10x/SPI.o

.debug_ranges   0x00000000     0x1768
 .debug_ranges  0x00000000      0x118 build_enddevice_f103_stm32f10x/message.o
 .debug_ranges  0x00000118       0x88 build_enddevice_f103_stm32f10x/task.o
 .debug_ranges  0x000001a0       0x70 build_enddevice_f103_stm32f10x/timer.o
 .debug_ranges  0x00000210      0x118 build_enddevice_f103_stm32f10x/aes.o
 .debug_ranges  0x00000328       0x40 build_enddevice_f103_stm32f10x/cmac.o
 .debug_ranges  0x00000368       0xc0 build_enddevice_f103_stm32f10x/Region.o
 .debug_ranges  0x00000428      0x120 build_enddevice_f103_stm32f10x/RegionCommon.o
 .debug_ranges  0x00000548      0x140 build_enddevice_f103_stm32f10x/RegionEU433.o
 .debug_ranges  0x00000688      0x278 build_enddevice_f103_stm32f10x/LoRaMac.o
 .debug_ranges  0x00000900       0x38 build_enddevice_f103_stm32f10x/LoRaMacCrypto.o
 .debug_ranges  0x00000938      0x158 build_enddevice_f103_stm32f10x/sx1276.o
 .debug_ranges  0x00000a90       0x68 build_enddevice_f103_stm32f10x/sx1276_cfg.o
 .debug_ranges  0x00000af8       0x60 build_enddevice_f103_stm32f10x/utils.o
 .debug_ranges  0x00000b58       0x30 build_enddevice_f103_stm32f10x/xprintf.o
 .debug_ranges  0x00000b88       0x10 build_enddevice_f103_stm32f10x/cmd_line.o
 .debug_ranges  0x00000b98       0x28 build_enddevice_f103_stm32f10x/log_queue.o
 .debug_ranges  0x00000bc0       0x40 build_enddevice_f103_stm32f10x/led.o
 .debug_ranges  0x00000c00       0x28 build_enddevice_f103_stm32f10x/button.o
 .debug_ranges  0x00000c28       0x10 build_enddevice_f103_stm32f10x/sys_dbg.o
 .debug_ranges  0x00000c38       0x30 build_enddevice_f103_stm32f10x/system_stm32f10x.o
 .debug_ranges  0x00000c68       0x98 build_enddevice_f103_stm32f10x/stm32f10x_gpio.o
 .debug_ranges  0x00000d00      0x108 build_enddevice_f103_stm32f10x/stm32f10x_rcc.o
 .debug_ranges  0x00000e08       0xf0 build_enddevice_f103_stm32f10x/stm32f10x_usart.o
 .debug_ranges  0x00000ef8       0xc0 build_enddevice_f103_stm32f10x/stm32f10x_spi.o
 .debug_ranges  0x00000fb8       0x30 build_enddevice_f103_stm32f10x/misc.o
 .debug_ranges  0x00000fe8       0x40 build_enddevice_f103_stm32f10x/stm32f10x_exti.o
 .debug_ranges  0x00001028      0x2f8 build_enddevice_f103_stm32f10x/stm32f10x_tim.o
 .debug_ranges  0x00001320       0x38 build_enddevice_f103_stm32f10x/stm32f10x_iwdg.o
 .debug_ranges  0x00001358       0x28 build_enddevice_f103_stm32f10x/stm32.o
 .debug_ranges  0x00001380       0x80 build_enddevice_f103_stm32f10x/system.o
 .debug_ranges  0x00001400       0xa8 build_enddevice_f103_stm32f10x/sys_cfg.o
 .debug_ranges  0x000014a8       0xb0 build_enddevice_f103_stm32f10x/io_cfg.o
 .debug_ranges  0x00001558       0x18 build_enddevice_f103_stm32f10x/app.o
 .debug_ranges  0x00001570       0x30 build_enddevice_f103_stm32f10x/shell.o
 .debug_ranges  0x000015a0       0x28 build_enddevice_f103_stm32f10x/app_bsp.o
 .debug_ranges  0x000015c8       0x88 build_enddevice_f103_stm32f10x/lorawan.o
 .debug_ranges  0x00001650       0x40 build_enddevice_f103_stm32f10x/lora_ping_pong.o
 .debug_ranges  0x00001690       0x18 build_enddevice_f103_stm32f10x/task_shell.o
 .debug_ranges  0x000016a8       0x10 build_enddevice_f103_stm32f10x/task_life.o
 .debug_ranges  0x000016b8       0x40 build_enddevice_f103_stm32f10x/task_loramac.o
 .debug_ranges  0x000016f8       0x10 build_enddevice_f103_stm32f10x/task_ui.o
 .debug_ranges  0x00001708       0x60 build_enddevice_f103_stm32f10x/SPI.o

.debug_line     0x00000000     0x9099
 .debug_line    0x00000000      0x38c build_enddevice_f103_stm32f10x/message.o
 .debug_line    0x0000038c      0x32a build_enddevice_f103_stm32f10x/task.o
 .debug_line    0x000006b6      0x260 build_enddevice_f103_stm32f10x/timer.o
 .debug_line    0x00000916      0x2e3 build_enddevice_f103_stm32f10x/aes.o
 .debug_line    0x00000bf9      0x1de build_enddevice_f103_stm32f10x/cmac.o
 .debug_line    0x00000dd7      0x34e build_enddevice_f103_stm32f10x/Region.o
 .debug_line    0x00001125      0x3b3 build_enddevice_f103_stm32f10x/RegionCommon.o
 .debug_line    0x000014d8      0x594 build_enddevice_f103_stm32f10x/RegionEU433.o
 .debug_line    0x00001a6c      0xd77 build_enddevice_f103_stm32f10x/LoRaMac.o
 .debug_line    0x000027e3      0x229 build_enddevice_f103_stm32f10x/LoRaMacCrypto.o
 .debug_line    0x00002a0c      0x930 build_enddevice_f103_stm32f10x/sx1276.o
 .debug_line    0x0000333c      0x263 build_enddevice_f103_stm32f10x/sx1276_cfg.o
 .debug_line    0x0000359f      0x21c build_enddevice_f103_stm32f10x/utils.o
 .debug_line    0x000037bb      0x2fc build_enddevice_f103_stm32f10x/xprintf.o
 .debug_line    0x00003ab7      0x148 build_enddevice_f103_stm32f10x/cmd_line.o
 .debug_line    0x00003bff      0x193 build_enddevice_f103_stm32f10x/log_queue.o
 .debug_line    0x00003d92      0x1cc build_enddevice_f103_stm32f10x/led.o
 .debug_line    0x00003f5e      0x181 build_enddevice_f103_stm32f10x/button.o
 .debug_line    0x000040df      0x1f1 build_enddevice_f103_stm32f10x/sys_dbg.o
 .debug_line    0x000042d0      0x1ed build_enddevice_f103_stm32f10x/system_stm32f10x.o
 .debug_line    0x000044bd      0x3fd build_enddevice_f103_stm32f10x/stm32f10x_gpio.o
 .debug_line    0x000048ba      0x4d3 build_enddevice_f103_stm32f10x/stm32f10x_rcc.o
 .debug_line    0x00004d8d      0x4e2 build_enddevice_f103_stm32f10x/stm32f10x_usart.o
 .debug_line    0x0000526f      0x46c build_enddevice_f103_stm32f10x/stm32f10x_spi.o
 .debug_line    0x000056db      0x289 build_enddevice_f103_stm32f10x/misc.o
 .debug_line    0x00005964      0x2ca build_enddevice_f103_stm32f10x/stm32f10x_exti.o
 .debug_line    0x00005c2e      0xb43 build_enddevice_f103_stm32f10x/stm32f10x_tim.o
 .debug_line    0x00006771      0x23a build_enddevice_f103_stm32f10x/stm32f10x_iwdg.o
 .debug_line    0x000069ab      0x1b4 build_enddevice_f103_stm32f10x/stm32.o
 .debug_line    0x00006b5f      0x4b5 build_enddevice_f103_stm32f10x/system.o
 .debug_line    0x00007014      0x58f build_enddevice_f103_stm32f10x/sys_cfg.o
 .debug_line    0x000075a3      0x46f build_enddevice_f103_stm32f10x/io_cfg.o
 .debug_line    0x00007a12      0x2fa build_enddevice_f103_stm32f10x/app.o
 .debug_line    0x00007d0c      0x1d2 build_enddevice_f103_stm32f10x/shell.o
 .debug_line    0x00007ede      0x186 build_enddevice_f103_stm32f10x/app_bsp.o
 .debug_line    0x00008064      0x2b5 build_enddevice_f103_stm32f10x/lorawan.o
 .debug_line    0x00008319      0x256 build_enddevice_f103_stm32f10x/lora_ping_pong.o
 .debug_line    0x0000856f      0x1dd build_enddevice_f103_stm32f10x/task_shell.o
 .debug_line    0x0000874c      0x16a build_enddevice_f103_stm32f10x/task_life.o
 .debug_line    0x000088b6      0x118 build_enddevice_f103_stm32f10x/task_list.o
 .debug_line    0x000089ce      0x1de build_enddevice_f103_stm32f10x/task_loramac.o
 .debug_line    0x00008bac      0x1aa build_enddevice_f103_stm32f10x/task_ui.o
 .debug_line    0x00008d56      0x343 build_enddevice_f103_stm32f10x/SPI.o

.debug_str      0x00000000     0x76dc
 .debug_str     0x00000000      0x58b build_enddevice_f103_stm32f10x/message.o
                                0x672 (size before relaxing)
 .debug_str     0x0000058b      0x1fa build_enddevice_f103_stm32f10x/task.o
                                0x533 (size before relaxing)
 .debug_str     0x00000785      0x182 build_enddevice_f103_stm32f10x/timer.o
                                0x47c (size before relaxing)
 .debug_str     0x00000907       0xf2 build_enddevice_f103_stm32f10x/aes.o
                                0x291 (size before relaxing)
 .debug_str     0x000009f9       0x97 build_enddevice_f103_stm32f10x/cmac.o
                                0x280 (size before relaxing)
 .debug_str     0x00000a90      0xf84 build_enddevice_f103_stm32f10x/Region.o
                               0x12a1 (size before relaxing)
 .debug_str     0x00001a14      0x5a0 build_enddevice_f103_stm32f10x/RegionCommon.o
                                0x94e (size before relaxing)
 .debug_str     0x00001fb4      0x211 build_enddevice_f103_stm32f10x/RegionEU433.o
                               0x1696 (size before relaxing)
 .debug_str     0x000021c5     0x1710 build_enddevice_f103_stm32f10x/LoRaMac.o
                               0x2b32 (size before relaxing)
 .debug_str     0x000038d5       0xa0 build_enddevice_f103_stm32f10x/LoRaMacCrypto.o
                                0x394 (size before relaxing)
 .debug_str     0x00003975      0x62e build_enddevice_f103_stm32f10x/sx1276.o
                                0xa73 (size before relaxing)
 .debug_str     0x00003fa3       0xf1 build_enddevice_f103_stm32f10x/sx1276_cfg.o
                                0x6e6 (size before relaxing)
 .debug_str     0x00004094       0x75 build_enddevice_f103_stm32f10x/utils.o
                                0x273 (size before relaxing)
 .debug_str     0x00004109       0xe1 build_enddevice_f103_stm32f10x/xprintf.o
                                0x2c6 (size before relaxing)
 .debug_str     0x000041ea       0x55 build_enddevice_f103_stm32f10x/cmd_line.o
                                0x22e (size before relaxing)
 .debug_str     0x0000423f       0x37 build_enddevice_f103_stm32f10x/log_queue.o
                                0x223 (size before relaxing)
 .debug_str     0x00004276       0x9a build_enddevice_f103_stm32f10x/led.o
                                0x269 (size before relaxing)
 .debug_str     0x00004310       0xa8 build_enddevice_f103_stm32f10x/button.o
                                0x278 (size before relaxing)
 .debug_str     0x000043b8       0xcf build_enddevice_f103_stm32f10x/sys_dbg.o
                                0x28f (size before relaxing)
 .debug_str     0x00004487      0x191 build_enddevice_f103_stm32f10x/system_stm32f10x.o
                                0x379 (size before relaxing)
 .debug_str     0x00004618      0x38e build_enddevice_f103_stm32f10x/stm32f10x_gpio.o
                                0x5b3 (size before relaxing)
 .debug_str     0x000049a6      0x3d2 build_enddevice_f103_stm32f10x/stm32f10x_rcc.o
                                0x69d (size before relaxing)
 .debug_str     0x00004d78      0x47e build_enddevice_f103_stm32f10x/stm32f10x_usart.o
                                0x753 (size before relaxing)
 .debug_str     0x000051f6      0x381 build_enddevice_f103_stm32f10x/stm32f10x_spi.o
                                0x6c0 (size before relaxing)
 .debug_str     0x00005577      0x1d1 build_enddevice_f103_stm32f10x/misc.o
                                0x441 (size before relaxing)
 .debug_str     0x00005748      0x1c9 build_enddevice_f103_stm32f10x/stm32f10x_exti.o
                                0x3bd (size before relaxing)
 .debug_str     0x00005911      0xb7d build_enddevice_f103_stm32f10x/stm32f10x_tim.o
                                0xe73 (size before relaxing)
 .debug_str     0x0000648e       0xf3 build_enddevice_f103_stm32f10x/stm32f10x_iwdg.o
                                0x2df (size before relaxing)
 .debug_str     0x00006581       0x6c build_enddevice_f103_stm32f10x/stm32.o
                                0x23e (size before relaxing)
 .debug_str     0x000065ed      0x327 build_enddevice_f103_stm32f10x/system.o
                                0x72d (size before relaxing)
 .debug_str     0x00006914      0x4de build_enddevice_f103_stm32f10x/sys_cfg.o
                                0xf38 (size before relaxing)
 .debug_str     0x00006df2       0xcb build_enddevice_f103_stm32f10x/io_cfg.o
                                0xae7 (size before relaxing)
 .debug_str     0x00006ebd      0x1a1 build_enddevice_f103_stm32f10x/app.o
                                0x588 (size before relaxing)
 .debug_str     0x0000705e       0x93 build_enddevice_f103_stm32f10x/shell.o
                                0x345 (size before relaxing)
 .debug_str     0x000070f1       0x38 build_enddevice_f103_stm32f10x/app_bsp.o
                                0x36c (size before relaxing)
 .debug_str     0x00007129       0xb6 build_enddevice_f103_stm32f10x/lorawan.o
                               0x1205 (size before relaxing)
 .debug_str     0x000071df      0x12f build_enddevice_f103_stm32f10x/lora_ping_pong.o
                                0x577 (size before relaxing)
 .debug_str     0x0000730e       0x51 build_enddevice_f103_stm32f10x/task_shell.o
                                0x40f (size before relaxing)
 .debug_str     0x0000735f       0x44 build_enddevice_f103_stm32f10x/task_life.o
                                0x36b (size before relaxing)
 .debug_str     0x000073a3       0x1a build_enddevice_f103_stm32f10x/task_list.o
                                0x2d8 (size before relaxing)
 .debug_str     0x000073bd       0x45 build_enddevice_f103_stm32f10x/task_loramac.o
                                0x446 (size before relaxing)
 .debug_str     0x00007402       0x35 build_enddevice_f103_stm32f10x/task_ui.o
                                0x3d3 (size before relaxing)
 .debug_str     0x00007437      0x2a5 build_enddevice_f103_stm32f10x/SPI.o
                                0x7da (size before relaxing)

.comment        0x00000000       0x6e
 .comment       0x00000000       0x6e build_enddevice_f103_stm32f10x/message.o
                                 0x6f (size before relaxing)
 .comment       0x0000006e       0x6f build_enddevice_f103_stm32f10x/task.o
 .comment       0x0000006e       0x6f build_enddevice_f103_stm32f10x/timer.o
 .comment       0x0000006e       0x6f build_enddevice_f103_stm32f10x/aes.o
 .comment       0x0000006e       0x6f build_enddevice_f103_stm32f10x/cmac.o
 .comment       0x0000006e       0x6f build_enddevice_f103_stm32f10x/Region.o
 .comment       0x0000006e       0x6f build_enddevice_f103_stm32f10x/RegionCommon.o
 .comment       0x0000006e       0x6f build_enddevice_f103_stm32f10x/RegionEU433.o
 .comment       0x0000006e       0x6f build_enddevice_f103_stm32f10x/LoRaMac.o
 .comment       0x0000006e       0x6f build_enddevice_f103_stm32f10x/LoRaMacCrypto.o
 .comment       0x0000006e       0x6f build_enddevice_f103_stm32f10x/sx1276.o
 .comment       0x0000006e       0x6f build_enddevice_f103_stm32f10x/sx1276_cfg.o
 .comment       0x0000006e       0x6f build_enddevice_f103_stm32f10x/utils.o
 .comment       0x0000006e       0x6f build_enddevice_f103_stm32f10x/xprintf.o
 .comment       0x0000006e       0x6f build_enddevice_f103_stm32f10x/cmd_line.o
 .comment       0x0000006e       0x6f build_enddevice_f103_stm32f10x/log_queue.o
 .comment       0x0000006e       0x6f build_enddevice_f103_stm32f10x/led.o
 .comment       0x0000006e       0x6f build_enddevice_f103_stm32f10x/button.o
 .comment       0x0000006e       0x6f build_enddevice_f103_stm32f10x/sys_dbg.o
 .comment       0x0000006e       0x6f build_enddevice_f103_stm32f10x/system_stm32f10x.o
 .comment       0x0000006e       0x6f build_enddevice_f103_stm32f10x/stm32f10x_gpio.o
 .comment       0x0000006e       0x6f build_enddevice_f103_stm32f10x/stm32f10x_rcc.o
 .comment       0x0000006e       0x6f build_enddevice_f103_stm32f10x/stm32f10x_usart.o
 .comment       0x0000006e       0x6f build_enddevice_f103_stm32f10x/stm32f10x_spi.o
 .comment       0x0000006e       0x6f build_enddevice_f103_stm32f10x/misc.o
 .comment       0x0000006e       0x6f build_enddevice_f103_stm32f10x/stm32f10x_exti.o
 .comment       0x0000006e       0x6f build_enddevice_f103_stm32f10x/stm32f10x_tim.o
 .comment       0x0000006e       0x6f build_enddevice_f103_stm32f10x/stm32f10x_iwdg.o
 .comment       0x0000006e       0x6f build_enddevice_f103_stm32f10x/stm32.o
 .comment       0x0000006e       0x6f build_enddevice_f103_stm32f10x/system.o
 .comment       0x0000006e       0x6f build_enddevice_f103_stm32f10x/sys_cfg.o
 .comment       0x0000006e       0x6f build_enddevice_f103_stm32f10x/io_cfg.o
 .comment       0x0000006e       0x6f build_enddevice_f103_stm32f10x/app.o
 .comment       0x0000006e       0x6f build_enddevice_f103_stm32f10x/shell.o
 .comment       0x0000006e       0x6f build_enddevice_f103_stm32f10x/app_bsp.o
 .comment       0x0000006e       0x6f build_enddevice_f103_stm32f10x/lorawan.o
 .comment       0x0000006e       0x6f build_enddevice_f103_stm32f10x/lora_ping_pong.o
 .comment       0x0000006e       0x6f build_enddevice_f103_stm32f10x/task_shell.o
 .comment       0x0000006e       0x6f build_enddevice_f103_stm32f10x/task_life.o
 .comment       0x0000006e       0x6f build_enddevice_f103_stm32f10x/task_list.o
 .comment       0x0000006e       0x6f build_enddevice_f103_stm32f10x/task_loramac.o
 .comment       0x0000006e       0x6f build_enddevice_f103_stm32f10x/task_ui.o
 .comment       0x0000006e       0x6f build_enddevice_f103_stm32f10x/SPI.o

.ARM.attributes
                0x00000000       0x31
 .ARM.attributes
                0x00000000       0x33 build_enddevice_f103_stm32f10x/message.o
 .ARM.attributes
                0x00000033       0x33 build_enddevice_f103_stm32f10x/task.o
 .ARM.attributes
                0x00000066       0x33 build_enddevice_f103_stm32f10x/timer.o
 .ARM.attributes
                0x00000099       0x33 build_enddevice_f103_stm32f10x/aes.o
 .ARM.attributes
                0x000000cc       0x33 build_enddevice_f103_stm32f10x/cmac.o
 .ARM.attributes
                0x000000ff       0x33 build_enddevice_f103_stm32f10x/Region.o
 .ARM.attributes
                0x00000132       0x33 build_enddevice_f103_stm32f10x/RegionCommon.o
 .ARM.attributes
                0x00000165       0x33 build_enddevice_f103_stm32f10x/RegionEU433.o
 .ARM.attributes
                0x00000198       0x33 build_enddevice_f103_stm32f10x/LoRaMac.o
 .ARM.attributes
                0x000001cb       0x33 build_enddevice_f103_stm32f10x/LoRaMacCrypto.o
 .ARM.attributes
                0x000001fe       0x33 build_enddevice_f103_stm32f10x/sx1276.o
 .ARM.attributes
                0x00000231       0x33 build_enddevice_f103_stm32f10x/sx1276_cfg.o
 .ARM.attributes
                0x00000264       0x33 build_enddevice_f103_stm32f10x/utils.o
 .ARM.attributes
                0x00000297       0x33 build_enddevice_f103_stm32f10x/xprintf.o
 .ARM.attributes
                0x000002ca       0x33 build_enddevice_f103_stm32f10x/cmd_line.o
 .ARM.attributes
                0x000002fd       0x33 build_enddevice_f103_stm32f10x/log_queue.o
 .ARM.attributes
                0x00000330       0x33 build_enddevice_f103_stm32f10x/led.o
 .ARM.attributes
                0x00000363       0x33 build_enddevice_f103_stm32f10x/button.o
 .ARM.attributes
                0x00000396       0x33 build_enddevice_f103_stm32f10x/sys_dbg.o
 .ARM.attributes
                0x000003c9       0x33 build_enddevice_f103_stm32f10x/system_stm32f10x.o
 .ARM.attributes
                0x000003fc       0x33 build_enddevice_f103_stm32f10x/stm32f10x_gpio.o
 .ARM.attributes
                0x0000042f       0x33 build_enddevice_f103_stm32f10x/stm32f10x_rcc.o
 .ARM.attributes
                0x00000462       0x33 build_enddevice_f103_stm32f10x/stm32f10x_usart.o
 .ARM.attributes
                0x00000495       0x33 build_enddevice_f103_stm32f10x/stm32f10x_spi.o
 .ARM.attributes
                0x000004c8       0x33 build_enddevice_f103_stm32f10x/misc.o
 .ARM.attributes
                0x000004fb       0x33 build_enddevice_f103_stm32f10x/stm32f10x_exti.o
 .ARM.attributes
                0x0000052e       0x33 build_enddevice_f103_stm32f10x/stm32f10x_tim.o
 .ARM.attributes
                0x00000561       0x33 build_enddevice_f103_stm32f10x/stm32f10x_iwdg.o
 .ARM.attributes
                0x00000594       0x33 build_enddevice_f103_stm32f10x/stm32.o
 .ARM.attributes
                0x000005c7       0x33 build_enddevice_f103_stm32f10x/system.o
 .ARM.attributes
                0x000005fa       0x33 build_enddevice_f103_stm32f10x/sys_cfg.o
 .ARM.attributes
                0x0000062d       0x33 build_enddevice_f103_stm32f10x/io_cfg.o
 .ARM.attributes
                0x00000660       0x33 build_enddevice_f103_stm32f10x/app.o
 .ARM.attributes
                0x00000693       0x33 build_enddevice_f103_stm32f10x/shell.o
 .ARM.attributes
                0x000006c6       0x33 build_enddevice_f103_stm32f10x/app_bsp.o
 .ARM.attributes
                0x000006f9       0x33 build_enddevice_f103_stm32f10x/lorawan.o
 .ARM.attributes
                0x0000072c       0x33 build_enddevice_f103_stm32f10x/lora_ping_pong.o
 .ARM.attributes
                0x0000075f       0x33 build_enddevice_f103_stm32f10x/task_shell.o
 .ARM.attributes
                0x00000792       0x33 build_enddevice_f103_stm32f10x/task_life.o
 .ARM.attributes
                0x000007c5       0x33 build_enddevice_f103_stm32f10x/task_list.o
 .ARM.attributes
                0x000007f8       0x33 build_enddevice_f103_stm32f10x/task_loramac.o
 .ARM.attributes
                0x0000082b       0x33 build_enddevice_f103_stm32f10x/task_ui.o
 .ARM.attributes
                0x0000085e       0x33 build_enddevice_f103_stm32f10x/SPI.o
 .ARM.attributes
                0x00000891       0x1b /home/binhnt/opt/gcc-arm-none-eabi-5_4-2016q3/arm-none-eabi/lib/armv7-m/libc.a(lib_a-memcpy.o)
 .ARM.attributes
                0x000008ac       0x2d /home/binhnt/opt/gcc-arm-none-eabi-5_4-2016q3/arm-none-eabi/lib/armv7-m/libc.a(lib_a-memset.o)
 .ARM.attributes
                0x000008d9       0x2d /home/binhnt/opt/gcc-arm-none-eabi-5_4-2016q3/arm-none-eabi/lib/armv7-m/libm.a(lib_a-s_ceil.o)
 .ARM.attributes
                0x00000906       0x2d /home/binhnt/opt/gcc-arm-none-eabi-5_4-2016q3/arm-none-eabi/lib/armv7-m/libm.a(lib_a-s_floor.o)
 .ARM.attributes
                0x00000933       0x2d /home/binhnt/opt/gcc-arm-none-eabi-5_4-2016q3/arm-none-eabi/lib/armv7-m/libm.a(lib_a-s_round.o)
 .ARM.attributes
                0x00000960       0x1d /home/binhnt/opt/gcc-arm-none-eabi-5_4-2016q3/lib/gcc/arm-none-eabi/5.4.1/armv7-m/libgcc.a(_arm_addsubdf3.o)
 .ARM.attributes
                0x0000097d       0x1d /home/binhnt/opt/gcc-arm-none-eabi-5_4-2016q3/lib/gcc/arm-none-eabi/5.4.1/armv7-m/libgcc.a(_arm_muldivdf3.o)
 .ARM.attributes
                0x0000099a       0x1d /home/binhnt/opt/gcc-arm-none-eabi-5_4-2016q3/lib/gcc/arm-none-eabi/5.4.1/armv7-m/libgcc.a(_arm_cmpdf2.o)
 .ARM.attributes
                0x000009b7       0x1d /home/binhnt/opt/gcc-arm-none-eabi-5_4-2016q3/lib/gcc/arm-none-eabi/5.4.1/armv7-m/libgcc.a(_arm_fixdfsi.o)
 .ARM.attributes
                0x000009d4       0x1d /home/binhnt/opt/gcc-arm-none-eabi-5_4-2016q3/lib/gcc/arm-none-eabi/5.4.1/armv7-m/libgcc.a(_arm_fixunsdfsi.o)
 .ARM.attributes
                0x000009f1       0x1d /home/binhnt/opt/gcc-arm-none-eabi-5_4-2016q3/lib/gcc/arm-none-eabi/5.4.1/armv7-m/libgcc.a(_arm_addsubsf3.o)

.debug_frame    0x00000000     0x34c8
 .debug_frame   0x00000000      0x194 build_enddevice_f103_stm32f10x/message.o
 .debug_frame   0x00000194      0x134 build_enddevice_f103_stm32f10x/task.o
 .debug_frame   0x000002c8       0xc0 build_enddevice_f103_stm32f10x/timer.o
 .debug_frame   0x00000388       0xac build_enddevice_f103_stm32f10x/aes.o
 .debug_frame   0x00000434       0x8c build_enddevice_f103_stm32f10x/cmac.o
 .debug_frame   0x000004c0      0x1ec build_enddevice_f103_stm32f10x/Region.o
 .debug_frame   0x000006ac      0x1a0 build_enddevice_f103_stm32f10x/RegionCommon.o
 .debug_frame   0x0000084c      0x2b4 build_enddevice_f103_stm32f10x/RegionEU433.o
 .debug_frame   0x00000b00      0x484 build_enddevice_f103_stm32f10x/LoRaMac.o
 .debug_frame   0x00000f84       0xe8 build_enddevice_f103_stm32f10x/LoRaMacCrypto.o
 .debug_frame   0x0000106c      0x49c build_enddevice_f103_stm32f10x/sx1276.o
 .debug_frame   0x00001508       0xe8 build_enddevice_f103_stm32f10x/sx1276_cfg.o
 .debug_frame   0x000015f0       0xac build_enddevice_f103_stm32f10x/utils.o
 .debug_frame   0x0000169c      0x11c build_enddevice_f103_stm32f10x/xprintf.o
 .debug_frame   0x000017b8       0x34 build_enddevice_f103_stm32f10x/cmd_line.o
 .debug_frame   0x000017ec       0x70 build_enddevice_f103_stm32f10x/log_queue.o
 .debug_frame   0x0000185c       0xa8 build_enddevice_f103_stm32f10x/led.o
 .debug_frame   0x00001904       0x68 build_enddevice_f103_stm32f10x/button.o
 .debug_frame   0x0000196c       0x28 build_enddevice_f103_stm32f10x/sys_dbg.o
 .debug_frame   0x00001994       0x3c build_enddevice_f103_stm32f10x/system_stm32f10x.o
 .debug_frame   0x000019d0      0x170 build_enddevice_f103_stm32f10x/stm32f10x_gpio.o
 .debug_frame   0x00001b40      0x220 build_enddevice_f103_stm32f10x/stm32f10x_rcc.o
 .debug_frame   0x00001d60      0x224 build_enddevice_f103_stm32f10x/stm32f10x_usart.o
 .debug_frame   0x00001f84      0x1bc build_enddevice_f103_stm32f10x/stm32f10x_spi.o
 .debug_frame   0x00002140       0x68 build_enddevice_f103_stm32f10x/misc.o
 .debug_frame   0x000021a8       0x9c build_enddevice_f103_stm32f10x/stm32f10x_exti.o
 .debug_frame   0x00002244      0x6b4 build_enddevice_f103_stm32f10x/stm32f10x_tim.o
 .debug_frame   0x000028f8       0x70 build_enddevice_f103_stm32f10x/stm32f10x_iwdg.o
 .debug_frame   0x00002968       0x50 build_enddevice_f103_stm32f10x/stm32.o
 .debug_frame   0x000029b8      0x17c build_enddevice_f103_stm32f10x/system.o
 .debug_frame   0x00002b34      0x1c8 build_enddevice_f103_stm32f10x/sys_cfg.o
 .debug_frame   0x00002cfc      0x1e8 build_enddevice_f103_stm32f10x/io_cfg.o
 .debug_frame   0x00002ee4       0x40 build_enddevice_f103_stm32f10x/app.o
 .debug_frame   0x00002f24       0x88 build_enddevice_f103_stm32f10x/shell.o
 .debug_frame   0x00002fac       0x34 build_enddevice_f103_stm32f10x/app_bsp.o
 .debug_frame   0x00002fe0       0xf4 build_enddevice_f103_stm32f10x/lorawan.o
 .debug_frame   0x000030d4       0xfc build_enddevice_f103_stm32f10x/lora_ping_pong.o
 .debug_frame   0x000031d0       0x54 build_enddevice_f103_stm32f10x/task_shell.o
 .debug_frame   0x00003224       0x30 build_enddevice_f103_stm32f10x/task_life.o
 .debug_frame   0x00003254       0x80 build_enddevice_f103_stm32f10x/task_loramac.o
 .debug_frame   0x000032d4       0x3c build_enddevice_f103_stm32f10x/task_ui.o
 .debug_frame   0x00003310       0xec build_enddevice_f103_stm32f10x/SPI.o
 .debug_frame   0x000033fc       0x34 /home/binhnt/opt/gcc-arm-none-eabi-5_4-2016q3/arm-none-eabi/lib/armv7-m/libc.a(lib_a-memset.o)
 .debug_frame   0x00003430       0x34 /home/binhnt/opt/gcc-arm-none-eabi-5_4-2016q3/arm-none-eabi/lib/armv7-m/libm.a(lib_a-s_ceil.o)
 .debug_frame   0x00003464       0x34 /home/binhnt/opt/gcc-arm-none-eabi-5_4-2016q3/arm-none-eabi/lib/armv7-m/libm.a(lib_a-s_floor.o)
 .debug_frame   0x00003498       0x30 /home/binhnt/opt/gcc-arm-none-eabi-5_4-2016q3/arm-none-eabi/lib/armv7-m/libm.a(lib_a-s_round.o)
